:0400000080314028E3
:100008007E1480312000A3018B132100911223302C
:100018008C31A22480312000A2002208031915285F
:1000280016283B2823088531B92580318D31B32521
:10003800803173082000A1007208A0008B31902342
:100048008031243A031D29282A283B28200021082A
:10005800803AFB0080307B02031D342802302002E6
:10006800031C372838283B282100D701D70A21004C
:1000780091168B177E100900803142288731FB27A3
:100088008031E6008731FC278031E700F0308400BA
:10009800233085000030FE000430FF008B319C23A4
:1000A8008031FC01FD01E301E401E5012100D101FA
:1000B800D201D301D401D501D601D7012030840063
:1000C800013085002030FE000030FF008B319C237A
:1000D80080317E1020008531112D2000D100460886
:1000E80086008701403FC800413FC9004808840096
:1000F800490885001200253A031D832884285729BA
:100108004608860087010130810741310318810ABA
:100118002100D101D2010310003003180130200062
:10012800E300FF302100D300FF30D4002000CC01D1
:10013800BA28E31446088600870101308107413157
:100148000318810ABA28CC01CC0ABA2846088600C6
:100158008701403FC800413FC9004808840049085A
:1001680085000008303A03199D28A7284C08031970
:10017800BE28BF28AA284708AA00460887311027A2
:10018800803120002B082100D20020002A082100FD
:10019800D100D21FD028D128D928200063142100EB
:1001A800D109D209D10A0319D20A200046088600CB
:1001B8008701403FD200413FD300520884005308D2
:1001C80085001200643A0319EA28EB28F52852083A
:1001D8008400530885001200693A031DF428F528A5
:1001E8001729470886008701010884008501023025
:1001F8008107003FCD00013FCE005208013EC800F4
:100208000030533DC9004608860087014808C03FB2
:100218004908C13F4E08BB004D08BA005108833158
:10022800B32380316F2952088400530885001200D7
:10023800783A031D202921294D294708860087017E
:1002480001088400850102308107003FCD00013F8D
:10025800CE005208013EC8000030533DC900460890
:10026800860087014808C03F4908C13F44294E0815
:10027800BB004D08BA0051088631342680316F29F9
:1002880052088400530885000008783A03193B296E
:100298004D29200046088600870101308107413139
:1002A8000318810A6F29460886008701403FC80065
:1002B800413FC90048088400490885000008CA0071
:1002C800CB014A08A4004B08A5005108A6008E31AE
:1002D800FF2680314D29080021008F012000640885
:1002E800031D772978298A2922000E148E100E11F1
:1002F80006302000AA001330A900AD30890B8229EE
:10030800A90B8229AA0B822900329F296403031DA5
:100318008E298F29942922000E148E100E157C29FF
:1003280002306406031D99299A299F2922000E107C
:100338008E100E157C298E31682681312000B6007A
:1003480036088C311A2481312000AF008E3168269E
:1003580081312000B60036088C311A248131200002
:10036800B0003008A900AA012F08AB00AC01AB0E01
:10037800AC0EF030AC052B080F39AC04F030AB05EF
:1003880029082B07AD002A082C3DAE00B401B501A1
:100398000D2A21005708031DD229D329DC291D3035
:1003A8002000A4009030A5008D3155258131402AC8
:1003B8008E31682681312000B60036088C311A2427
:1003C80081312000B1008E31682681312000B600CD
:1003D80036088C311A2481312000B2003108A90076
:1003E8000330A935FF3E031DF52929353207B3002F
:1003F8003508A5003408A4008B31A82381312000DA
:1004080033088631AB26813101302000B407003033
:10041800B53D2E083502031D132A2D083402031C8E
:10042800162A172ACD296408031D1B2A1C2A212AEB
:1004380022000E148E140E11352A6403031D252A7A
:10044800262A2B2A22000E148E140E15352A023065
:100458006406031D302A312A352A22000E108E1414
:100468000E11FF3021008F0096302000A40090303C
:10047800A5008D315525813108002100CD01CD0A17
:1004880020006408031D492A4A2A4E2A22000E1019
:100498000E115F2A6403031D522A532A572A220089
:1004A8000E100E115F2A02306406031D5C2A5D2AB5
:1004B8005F2A22000E112100CF01D001C72A570858
:1004C800031D672A682A712A2C302000A400903066
:1004D800A5008D3155258231FA2A50082000A50043
:1004E80021004F082000A4008B31A82382318D31D0
:1004F8002C2582312100CE004E0A0319842A852A30
:10050800C32A00302000A4009030A5008D31552565
:10051800823156302000DB009030DC00210050088A
:100528002000DE0021004F082000DD00AD308C31B6
:1005380083248231AD302000A4000030A5008D3125
:100548005525823169302000DB009030DC00210025
:100558004E082000E000E1016008DD006108DE00CF
:10056800AD308C3183248231AD302000A4000030BE
:10057800A5008D31552582312100CD01D12A0130C8
:10058800CF070030D03D56085002031DCD2A55082C
:100598004F02031CD02AD12A632A20006408031DB5
:1005A800D62AD72ADB2A22000E140E11EC2A64035D
:1005B800031DDF2AE02AE42A22000E140E15EC2A75
:1005C80002306406031DE92AEA2AEC2A22000E15E5
:1005D80021004D080319F12AF22AFA2A9630200040
:1005E800A4009030A5008D315525823108002100E6
:1005F800BE0120006408031D022B032B072B2200D9
:100608000E100E11182B6403031D0B2B0C2B102B33
:1006180022000E100E11182B02306406031D152B34
:10062800162B182B22000E112100BF01C0018D2BA3
:100638005708031D202B212B2A2B3B302000A40018
:100648009030A5008D3155258231B22B400820000D
:10065800A50021003F082000A4008B31A823823187
:100668008D312C2582312100BD003E08031D3D2B14
:100678003E2B572B71302000DB009030DC0021002E
:1006880040082000DE0021003F082000DD00AD30DA
:100698008C3183248231AD302000A4000030A500C5
:1006A8008D31552582318D302000DB009030DC0003
:1006B80021003D082000E000E1016008DD0061083C
:1006C800DE00AD308C3183248231AD302000A400AF
:1006D8000030A5008D31552582310F3021003E06AE
:1006E800031D772B782B7E2BBE010A308B31EF232D
:1006F8008231882B20308B31EF238231013020006A
:10070800E00060082100BE0701302100BF0700306B
:10071800C03D56084002031D932B55083F02031C99
:10072800962B972B1C2B20006408031D9C2B9D2BBC
:10073800A12B22000E140E11B22B6403031DA52B4E
:10074800A62BAA2B22000E140E15B22B023064061B
:10075800031DAF2BB02BB22B22000E150800200072
:10076800BD00C001C00ABB1BBA2BBC2B0130BD2B7E
:100778000030C300210052082000C20021005108A7
:100788002000C10043080319CA2BCB2BDF2BFF30F5
:10079800C107FF30C23D4308031DD32BD42BD92BEF
:1007A8002B30BE000030BF00DD2B2D30BE000030E6
:1007B800BF003E08C3001F30C4000030C50022003F
:1007C800BF011B2CFF30C407FF30C53D4408203E45
:1007D8008600013087000A30A4000030A5003B08DD
:1007E800A7003A08A6008F31512783312000250839
:1007F800AC002408AB008B31CA23833120002B08BE
:10080800303E8100C001FF30C107FF30C23D0A30D1
:10081800A4000030A5003B08A7003A08A6008731CD
:100828007027833120002508BB002408BA00200067
:100838004508803ABC0080303C02031D252C01305D
:100848004402031C282C292C472C20003A083B047E
:10085800031D2F2C302CE62B4008031D342C352C7F
:10086800E62B4208803ABC0080303C02031D3E2C37
:1008780001304102031C412C422C472C2000E31874
:10088800462C472CE62B2000430803194C2C4D2CF2
:10089800582CFF30C407FF30C53D4408203E860071
:1008A80001308700430881004408203EB300420815
:1008B800B5004108B4003D088D31E82583310800B2
:1008C8008B132100111691160E178E1723009F15F2
:1008D8009F101D169D171E121E159E1620004108FA
:1008E80040043F043E0403197A2C7B2C0B2D230073
:1008F8009F1D7F2C802C882C1E1D832C842C882CDB
:1009080004302000CA00A92C9F1D8B2C8C2C942C01
:100918001E198F2C902C942C10302000CA00A92C62
:100928009F19972C982C9D2C1E1D9B2C9C2C9D2C24
:10093800902C9F19A02CA12CA92C1E19A42CA52CF5
:10094800A92C40302000CA00A92C23001E1EAD2C63
:10095800AE2CB12C40302000CA0020004A08C2004A
:10096800C301C401C5014508A7004408A6004308FF
:10097800A5004208A4004108AB004008AA003F08AF
:10098800A9003E08A8008D317F2584312000270862
:10099800B3002608B2002508B1002408B0000130D1
:1009A800B7003130B6002D30B5000030B4008F31BB
:1009B800A5278431FF3020003007C600FF30313DC5
:1009C800C700FF30323DC800FF30333DC90046083C
:1009D800C2004708C3004808C4004908C5000830D9
:1009E800C536C40CC30CC20C890BF42C4208230076
:1009F8009C00FF3020004605C20000304705C300B8
:100A0800420823009B002000430823009C000B178A
:100A18002100911611128B17080000302000C10028
:100A28000030C0000030BF000030BE0084316424B4
:100A380085318731D02785318D31072585312100D2
:100A480091168B172100570803192B2D2C2DAF2D2C
:100A580020008E110E168E31682685318E3168265B
:100A680085312000E20031306206031D3C2D3D2D0A
:100A7800412D8231FB228531AB2D32306206031DB8
:100A8800462D472D4B2D813170218531AB2D3330CB
:100A98006206031D502D512D552D8231412285317D
:100AA800AB2D55306206031D5A2D5B2D632D493041
:100AB800A4009030A5008D3155258531AB2D3530FA
:100AC8006206031D682D692D6D2D8E31272685310F
:100AD800AB2D34306206031D722D732DA32D6408CF
:100AE800031D772D782D802D8830A4009030A50027
:100AF8008D3155258531AB2D6403031D842D852D3E
:100B08008D2D8330A4009030A5008D315525853179
:100B1800AB2D02306406031D922D932D9B2D7E3044
:100B2800A4009030A5008D3155258531AB2D783046
:100B3800A4009030A5008D3155258531AB2D393075
:100B48006206031DA82DA92DAB2D0100AB2D8C31FC
:100B580031248531B22D20008E150E121030890BEC
:100B6800B32D0032262D80314028FA002000670876
:100B7800F1006608F0008B31B82385317C087002DB
:100B8800F6007D08713BF7007708803AF200833061
:100B98007202031DD12DE1307602031CD42DD52D10
:100BA800DA2D01308B3188238531DE2D00308B31F1
:100BB8008823853120006708F1006608F0008B3132
:100BC800B82385317108F9007008F8007908F10038
:100BD8007808F0008B31B82385317D087106031D34
:100BE800F72D7C087006031DFA2DFB2D162E20000C
:100BF8000E160330F3008A30F2005630890B022EAD
:100C0800F20B022EF30B022E20000E120330F3001B
:100C18008A30F2005630890B0F2EF20B0F2EF30B91
:100C28000F2E332E20006708F1006608F0008B3184
:100C3800B823853171082000E7007008E600F0301D
:100C4800F2002330F30066087207F4006708733D6A
:100C5800F50074088600750887007A088100080086
:100C68002000BD00BE01BE0A210052082000C000BD
:100C7800210051082000BF001F30C2000030C3000F
:100C88002200BF01722EFF30C207FF30C33D3A0871
:100C98000F39C1000A3041020318532E542E592E21
:100CA8003030BC003C08C1075D2E5730BC003C0802
:100CB800C1074208203E86000130870041088100B4
:100CC800BE01FF30BF07FF30C03D3A0E0F39BA00F2
:100CD8003B0EF039BA043B0E0F39BB002000430825
:100CE800803ABC0080303C02031D7C2E0230420258
:100CF800031C7F2E802E9E2E20003A083B04031DE5
:100D0800862E872E472E3E08031D8B2E8C2E472EAF
:100D18004008803ABC0080303C02031D952E01300B
:100D28003F02031C982E992E9E2E2000E3189D2E1C
:100D38009E2E472E20004208203EB3004008B500F2
:100D48003F08B4003D088D31E825863108002000B1
:100D5800A6000330890BAE2E0000200026082200D2
:100D68008F0020006408031DBA2EBB2ED52E033039
:100D7800890BBC2E000022000E1502302000A500B1
:100D88004530A400A930890BC72EA40BC72EA50B8C
:100D9800C72E003222000E110330890BD12E00001D
:100DA8000F2F6403031DD92EDA2EF02E0330890B82
:100DB800DB2E000022000E1141302000A400EE308E
:100DC800890BE42EA40BE42E000022000E1503303C
:100DD800890BEC2E00000F2F02306406031DF52E40
:100DE800F62E0F2F0330890BF72E000022000E116C
:100DF80002302000A5004530A400A930890B022F3D
:100E0800A40B022FA50B022F003222000E1503306F
:100E1800890B0C2F000008002000B200B001B101BE
:100E2800320886008701403FAC00413FAD002C08E6
:100E380084002D08850012002A3A031D242F252F2F
:100E4800572F320886008701013081074131031886
:100E5800810A2A088600870101088400850102307A
:100E68008107003FB000013FB1006B2F2F08AC0095
:100E7800AD013108A5003008A4000A30A6000030F2
:100E8800A7008C31C224873120002C082407B00029
:100E98002D08253DB1003208860087010130810701
:100EA80041310318810A320886008701403FAC00AF
:100EB800413FAD002C0884002D0885000008D03E75
:100EC800AF000A302F02031C6A2F6B2F3A2F31080C
:100ED800AB003008AA0008002000AA01A51F752F42
:100EE800762F7D2FA409A509A40A0319A50AAA012A
:100EF800AA0AA71F802F812F8A2FA609A709A60A49
:100F08000319A70A0130A8002808AA06AB01AC01FA
:100F1800240825040319912F922FC12FA901A90A8A
:100F28009E2F0130A435A50D890B962F0130A800FE
:100F38002808A907A51FA12FA22F952F0130AB358F
:100F4800AC0D890BA32F25082702031DAD2F2408FC
:100F58002602031CB02FB12FB62F2408A60225089D
:100F6800A73B2B140130A536A40C890BB72F0130F1
:100F7800A902031DC02FC12FA22F2A080319C52FAC
:100F8800C62FCB2FAB09AC09AB0A0319AC0A2C0846
:100F9800A5002B08A400080021001D1023008C01C7
:100FA8008D018E018F01900121000C108C100C1105
:100FB8008C110C128C1620000C1221008D010E10C1
:100FC8008E100E118E110E128E120E178E17200013
:100FD8000E148E140E118E110E128E12FF30210077
:100FE8008F00900122001010901010110800FF349B
:040FF80003340800B6
:10171000F000700C2000031C0C1203180C160800BB
:10172000F030F0002330F1007C08700786007D085F
:10173000713D87000108080064008001013101301B
:10174000FE020030FF3B7F087E04031D9D2B00340A
:1017500020002508A600240822008D00200026086D
:101760000F3922008C001030890BB42B0032080096
:10177000700A033003197106031DBF2BC02BC32B46
:10178000F001F101C92B7008013EF0000030713DFD
:10179000F10008002000AC1BCE2BCF2BD02BDB2B75
:1017A0002B09AD002C09AE00AD0A0319AE0A2D08B5
:1017B000AB002E08AC0008002000240A03300319F7
:1017C0002506031DE42BE52BE82BA401A501EE2B38
:1017D0002408013EA4000030253DA500080020009B
:1017E000A400F32B00002000111EF72BF82BF22B86
:1017F000240823009A00FD2B000023009E1C012CCE
:10180000022CFC2B080020006708A5006608A40035
:101810008B31DC238C317D0820002506031D122C22
:101820007C082406031D152C162C182C0130192CAD
:10183000003008002000A40061302402031C212C89
:10184000222C252C2408A93E302C41302402031CD4
:101850002A2C2B2C2E2C2408C93E302C2408D03EB8
:101860000800F0302000A4002330A5000030A600BE
:10187000A7000030A8000430A9008C3166248C3108
:10188000FC01FD01FF302000E6000330E7002100ED
:10189000D70108002000D8005508DA005408D90004
:1018A000592C5930C6005608C7005808803171209D
:1018B0008C312000590884005A0885001200031D4D
:1018C000622C632C512CD401D5010800200025087E
:1018D000AB002408AA00762C2A0886002B08870073
:1018E000260881000130AA070030AB3D0130A80274
:1018F0000030A93B280A031D812C290A031D812CD5
:10190000822C6C2C08002100A1005D30A000210871
:10191000A200A401A501AB01AC0120005C08D50028
:101920005B08D400A030D600A2308C314A248C3120
:101930002100240821072000DF005F0886008701BE
:1019400081010800F000F10123001D1DA82CA92C25
:10195000AB2C1908C02C9D1CAE2CAF2CB22C1D1228
:101960001D16C02C2000911EB62CB72CC02C700860
:1019700086008701230019087F398100F101F10AEF
:10198000710808002000A801A901241CC82CC92C3A
:10199000CD2C2608A8072708A93D0130A635A70D9C
:1019A000890BCE2C0130A536A40C890BD32C24082E
:1019B0002504031DDC2CDD2CC52C2908A5002808D6
:1019C000A40008002000B200B001B101F82C2F08DB
:1019D000AD00AE012D08A4002E08A5002C08A6001D
:1019E0008E31FF268C3101302000B0070030B13D30
:1019F00030083207AD002D0886000130870001084D
:101A0000AF002F08031D052D062DE72C08008E3191
:101A1000B1268D31200025082100B60020002408C1
:101A20002100B50092302000DB009030DC00210066
:101A300036082000DE00210035082000DD00AD3032
:101A40008C3183248D31AD302000A4000030A500FE
:101A50008D3155258D310800FF3021008F00003277
:101A60000032000020006408031D372D382D3C2D66
:101A700022000E100E114D2D6403031D402D412D2B
:101A8000452D22000E100E114D2D02306406031D4F
:101A90004A2D4B2D4D2D22000E1100320032000038
:101AA00020000F08A40024080800572D0000200083
:101AB000111E5B2D5C2D562D2508A8002408A700BB
:101AC000742D2708840028088500000823009A0048
:101AD00001302000A7070030A83D6F2D0000230033
:101AE0009E1C732D742D6E2D20002708840028085D
:101AF00085001200031D7D2D7E2D612D0800003014
:101B00002000AF000030AE000030AD000030AC006F
:101B1000241C8B2D8C2D942D2808AC072908AD3D55
:101B20002A08AE3D2B08AF3D0130A835A90DAA0DFE
:101B3000AB0D890B952D0130A736A60CA50CA40C76
:101B4000890B9C2D2708260425042404031DA92D98
:101B5000AA2D882D2F08A7002E08A6002D08A50065
:101B60002C08A400080020006708F1006608F000B7
:101B70008B31B8238D317C087002F5007D08713BF4
:101B8000F6007608803AF40083307402031DCA2DF3
:101B9000E1307502031CCD2DCE2DD22D01308B31BD
:101BA00088238D317608803AF40080307402031D5A
:101BB000DB2D203075020318DE2DDF2DE32D0030E4
:101BC0008B3188238D317608F3007508F200080008
:101BD0002000B900631CED2DEE2DF42D3908AC006A
:101BE00033088C31E2248D312000B51FF82DF92DFA
:101BF000FB2DB401B501B701B8010D2E2030200036
:101C0000A4000030A5003908A6008E31FF268D31D2
:101C100001302000B7070030B83D3808803AB600E0
:101C20003508803A3602031D172E34083702031C8C
:101C30001A2E1B2EFE2D200063181F2E202E262E5E
:101C40003908AC0033088C31E2248D3108008E3124
:101C500068268E31D03E2000E4006408031D312E3A
:101C6000322E3B2E00302100D5000830D600200057
:101C700010109010602E6403031D3F2E402E492E3D
:101C800000302100D5001030D60020001014901034
:101C9000602E02306406031D4E2E4F2E582E00304B
:101CA0002100D5001030D600200010109014602EB6
:101CB0006030A4009030A5008D3155258E31672EFF
:101CC0009630A4009030A5008D3155258E31080046
:101CD000872E20008E1503302000A7008A30A60032
:101CE0005530890B712EA60B712EA70B712E003269
:101CF00020008E1103302000A7008A30A600553046
:101D0000890B802EA60B802EA70B802E00328C31E3
:101D100003248E31003A031D8E2E8F2E692E8B13D5
:101D200021009112F0302000A6002330A7007C088B
:101D3000260786007D08273D87000108A8007D084A
:101D4000A5007C08A4008B31DC238E3120002508FF
:101D5000FD002408FC008B172100911620002808A4
:101D600008002100911223001F142000911EB92E9B
:101D7000BA2EBD2E23001908E12E0E1607302000C2
:101D8000A7005830A6005930890BC42EA60BC42ECC
:101D9000A70BC42E003220000E1207302000A7002F
:101DA0005830A6005930890BD32EA60BD32EA70B83
:101DB000D32E003223009F1FDE2EDF2EB52E9F1361
:101DC000B52E1C082000A600A7012608A700A60122
:101DD00023001B0820002604A90023001C08200063
:101DE0002704AA002908AB002A08AC000E12210023
:101DF000911620002C08A5002B08A4000800200044
:101E000026080319042F052F0A2F2608031D092F62
:101E10000A2F0F2F24088731FD278E31502F2608D7
:101E2000093E86008701160001040319182F192F97
:101E3000372F2608093E86008701403FA700413F13
:101E4000A8002608023E86008701403FA900413FC6
:101E5000AA002A08803AAB002808803A2B02031D0A
:101E6000332F270829020318362F372F502F200031
:101E70002608860087012608023E840085010008A6
:101E80000107A7002708860087012408810026088B
:101E9000023E860087010130810741310318810A23
:101EA00008002000AA01A71F562F572F5E2FA60952
:101EB000A709A60A0319A70AAA01AA0AA51F612F42
:101EC000622F672FA409A509A40A0319A50A2408EB
:101ED000250403196C2F6D2F962FA901A90A792FBC
:101EE0000130A435A50D890B712F0130A8002808F9
:101EF000A907A51F7C2F7D2F702F25082702031D02
:101F0000832F24082602031C862F872F8B2F24085B
:101F1000A6022508A73B0130A536A40C890B8C2FFF
:101F20000130A902031D952F962F7D2F2A08031932
:101F30009A2F9B2FA02FA609A709A60A0319A70A63
:101F40002708A5002608A400080000302000BC00D7
:101F50000030BB000030BA000030B9003308320452
:101F6000310430040319B52FB62FF72FBD01BD0A78
:101F7000C42F0130B035B10DB20DB30D890BBA2F9E
:101F80000130B8003808BD07B31FC72FC82FB92FBD
:101F90000130B935BA0DBB0DBC0D890BC92F330803
:101FA0003702031DDD2F32083602031DDD2F3108F5
:101FB0003502031DDD2F30083402031CE02FE12F12
:101FC000EA2F3008B4023108B53B3208B63B33087B
:101FD000B73B39140130B336B20CB10CB00C890BDD
:101FE000EB2F0130BD02031DF62FF72FC82F3C0841
:101FF000B3003B08B2003A08B1003908B00008004D
:102000004534723461347334653420346334683455
:10201000653463346B3420346634613469346C3431
:102020002034613474342034613464346434723460
:102030006534733473342034003457347234693463
:10204000743465342034613462346F3472347434DF
:10205000653464340A34003443346834653463349A
:102060006B342034613462346F34723474346534C8
:1020700064340A34003452346534613464342034B6
:10208000613462346F3472347434653464340A34C5
:10209000003441346C3472346534613464347934DE
:1020A000203469346E346934743400343034783414
:1020B000253430343434783420343D342034003402
:1020C0006234613464342034743479347034653467
:1020D00000343034783425343034323478340A34AF
:1020E000003425343034343478343A3420340034F5
:1020F0004534523452344F3452340034323435344F
:1021000033343234003432343734333432340034FC
:1021100032343734313436340034253430343234C8
:1021200078340034253464340A3400344F344B346A
:02213000003479
:020000040001F9
:04000E00E239FF3E96
:00000001FF
