:1000000080314128FF3403347E1480310030860073
:1000100000308700FD018B13210091127D30F0002C
:100020008C31B6248031FC007C080319182819286B
:100030003C287D088531A12580318D31F125803125
:100040007308FB007208FA008B31A9238031243A2F
:10005000031D2B282C283C287B08803AF90080308F
:100060007902031D352802307A02031C382839280A
:100070003C2801302100D000210091168B177E1002
:100080000900803143282100803102208031D100D5
:10009000803103208031D200F0308400233085008D
:1000A0000030FE000430FF008B319D238031C530CD
:1000B0008400003085000C30FE000030FF008B31E2
:1000C0009D23803120308400013085002030FE00E7
:1000D0000030FF008B319D2380317E102000843161
:1000E000492C2000480886008701403FCA00413F54
:1000F000CB004A0884004B0885001200253A031DF6
:100100008228832858294808860087010130810702
:1001100041310318810A2100C501C6010030CD001C
:10012000FF30C700FF30C8002000CE01B6282100F4
:10013000CD14200048088600870101308107413135
:100140000318810AB6280130CE00B6284808860078
:100150008701403FCA00413FCB004A0884004B085A
:1001600085000008303A03199728A3284E08031980
:10017000BA28BB28A6284808A6004908A700863147
:10018000F4268031200027082100C6002000260820
:100190002100C500C61FCD28CE28D4284D14C5097E
:1001A000C609C50A0319C60A200048088600870147
:1001B000403FD300413FD4005308840054088500D9
:1001C0001200643A0319E528E628F0285308840051
:1001D000540885001200693A031DEF28F0281529FC
:1001E00049088600870101088400850102308107E3
:1001F000003FCF00013FD0005308013ECA0000304D
:10020000543DCB004808860087014A08C03F4B0890
:10021000C13F4708BA004608B9005008BC004F0863
:10022000BB008231E22280317229530884005408D5
:1002300085001200783A031D1E291F294E294908FE
:100240008600870101088400850102308107003F94
:10025000CF00013FD0005308013ECA000030543D9A
:10026000CB004808860087014A08C03F4B08C13FC1
:1002700045294708BA004608B9005008BC004F0895
:10028000BB00863119268031722953088400540836
:1002900085000008783A031939294E2920004808BA
:1002A000860087010130810741310318810A7229D4
:1002B000480886008701403FCA00413FCB004A08FA
:1002C00084004B0885000008CC00CD014C08A0003C
:1002D0004D08A1004708A3004608A2008F314E2711
:1002E00080314E29080001302100C0004E08031D56
:1002F0007A297B297F2922000E100E1190294E03A6
:10030000031D83298429882922000E100E119029AB
:1003100002304E06031D8D298E29902922000E11D0
:100320002100C201C301FA295008031D9829992907
:10033000A2292C302000A0009030A1008D3168252A
:1003400081312C2A43082000A1002100420820000E
:10035000A0008B31B62381318D313F2581312100C1
:10036000C100410A0319B529B629F6290030200039
:10037000A0009030A1008D3168258131A03020008F
:10038000DD005630DE009030DF0021004308200001
:10039000E100210042082000E0008C3198248131E6
:1003A000A0302000A0000030A1008D3168258131EF
:1003B000A0302000DD006930DE009030DF00210039
:1003C00041082000EE00EF016E08E0006F08E10038
:1003D0008C3198248131A0302000A0000030A10091
:1003E0008D31682581312100C001042A0130C20706
:1003F0000030C33D4A084302031D002A4908420257
:10040000031C032A042A94294E08031D082A092ADA
:100410000D2A22000E140E111E2A4E03031D112A4E
:10042000122A162A22000E140E151E2A02304E061B
:10043000031D1B2A1C2A1E2A22000E15210040081B
:100440000319232A242A2C2A96302000A000903059
:10045000A1008D316825813108002100B1014E08CD
:10046000031D332A342A382A22000E100E11492A7D
:100470004E03031D3C2A3D2A412A22000E100E1174
:10048000492A02304E06031D462A472A492A2200DD
:100490000E112100B201B301BD2A5008031D512ADB
:1004A000522A5B2A3B302000A0009030A1008D3101
:1004B00068258231E12A33082000A100210032089A
:1004C0002000A0008B31B62382318D313F2582314F
:1004D0002100B0003108031D6E2A6F2A892AA0303E
:1004E0002000DD007130DE009030DF002100330895
:1004F0002000E100210032082000E0008C31982427
:100500008231A0302000A0000030A1008D3168258C
:100510008231A0302000DD008D30DE009030DF0021
:10052000210030082000EE00EF016E08E0006F08A7
:10053000E1008C3198248231A0302000A0000030EE
:10054000A1008D31682582310F3021003106031D55
:10055000AA2AAB2AB12AB1010A308B31FD2382319C
:10056000B82A20308B31FD23823101302100B107C0
:1005700001302100B2070030B33D4A083302031DA9
:10058000C32A49083202031CC62AC72A4D2A4E082C
:10059000031DCB2ACC2AD02A22000E140E11E12AE8
:1005A0004E03031DD42AD52AD92A22000E140E1573
:1005B000E12A02304E06031DDE2ADF2AE12A22004C
:1005C0000E15080001302000C000BC1BE82AEA2AF2
:1005D0000130EB2A0030C300210046082000C20091
:1005E000210045082000C10043080319F82AF92A10
:1005F0000D2BFF30C107FF30C23D4308031D012B07
:10060000022B072B2B30BE000030BF000B2B2D30F0
:10061000BE000030BF003E08C3001F30C4000030E1
:10062000C5002200BF014A2BFF302000C407FF3065
:10063000C53D4408203E8600013087000A30A000F6
:100640000030A1003C08A3003B08A2008E31FC262C
:10065000823120002108A7002008A6008B31D82372
:10066000823120002608303E8100C001FF30C107E2
:10067000FF30C23D0A30A0000030A1003C08A300BA
:100680003B08A20087315027823120002108BC009E
:100690002008BB0020004508803ABD0080303D02A4
:1006A000031D542B01304402031C572B582B762B6F
:1006B00020003B083C04031D5E2B5F2B142B4008DD
:1006C000031D632B642B142B4208803ABD0080303D
:1006D0003D02031D6D2B01304102031C702B712B59
:1006E000762B2100CD18752B762B142B2000430878
:1006F00003197B2B7C2B872BFF30C407FF30C53DB4
:100700004408203E860001308700430881003A08F3
:10071000B2003908B1004408203EB3004208B500D9
:100720004108B4008E3166268231080021008F0115
:100730004E08031D9C2B9D2BAF2B22000E148E10F8
:100740000E1103302000A6008A30A5005530890B19
:10075000A72BA50BA72BA60BA72B0032CD2B4E0347
:10076000031DB32BB42BC22B22000E148E100E15BA
:1007700082302000A500DD30890BBC2BA50BBC2BE3
:100780000032CD2B02304E06031DC72BC82BCD2BBC
:1007900022000E108E100E15A12B2000AA01AB0115
:1007A000102C21005008031DD62BD72BE02B1D3019
:1007B0002000A0009030A1008D3168258331482CA5
:1007C0008731AC2783312000AC002C088C311124F8
:1007D00083312000A7008731AC2783312000AC0093
:1007E0002C088C31112483312000A8002708A50093
:1007F0000430A535890BF92B25082807A9002B08FB
:10080000A1002A08A0008B31B623833120002908DB
:1008100086318F26833101302000AA070030AB3D9E
:1008200021004A0820002B02031D1A2C2100490830
:1008300020002A02031C1D2C1E2CD12B21004E0847
:10084000031D232C242C292C22000E148E140E118F
:100850003D2C4E03031D2D2C2E2C332C22000E1468
:100860008E140E153D2C02304E06031D382C392CEB
:100870003D2C22000E108E140E11FF3021008F002F
:1008800096302000A0009030A1008D316825833182
:10089000080000302000BC000030BB000030BA006F
:1008A0000030B9008431F52484318D3192258431B2
:1008B0008D3119258431210091168B1721005008A4
:1008C0000319632C642CEB2C20008E110E1687313B
:1008D000AC2784318731AC2784312100C40031300A
:1008E0004406031D742C752C792C82312D22843101
:1008F000E72C32304406031D7E2C7F2C832C833161
:1009000096238431E72C33304406031D882C892C30
:100910008D2C813173218431E72C55304406031D21
:10092000922C932C9C2C49302000A0009030A100E8
:100930008D3168258431E72C35304406031DA12C08
:10094000A22CA62C8E3127268431E72C3430440685
:10095000031DAB2CAC2CE02C4E08031DB02CB12C8D
:10096000BA2C88302000A0009030A1008D3168257D
:100970008431E72C4E03031DBE2CBF2CC82C8330C2
:100980002000A0009030A1008D3168258431E72C33
:1009900002304E06031DCD2CCE2CD72C7E302000ED
:1009A000A0009030A1008D3168258431E72C78308B
:1009B0002000A0009030A1008D3168258431E72C03
:1009C00039304406031DE52CE62CE72C01008C3160
:1009D00028248431EE2C20008E150E121030890B45
:1009E000EF2C00325E2C803141288B132100111630
:1009F00091160E178E1723009F159F101D169D1719
:100A00001E121E159E1620003C083B043A043904B1
:100A100003190B2D0C2D9B2D23009F1D102D112D27
:100A2000192D1E1D142D152D192D04302000C50063
:100A3000392D9F1D1C2D1D2D252D1E19202D212DDD
:100A4000252D10302000C500392D9F19282D292D66
:100A50002E2D1E1D2C2D2D2D2E2D212D9F19312D8E
:100A6000322D392D1E19352D362D392D40302000CF
:100A7000C50023001E1E3D2D3E2D412D403020007F
:100A8000C50020004508BD00BE01BF01C0014008EF
:100A9000A3003F08A2003E08A1003D08A0003C08BA
:100AA000A7003B08A6003A08A5003908A4008D312C
:100AB000BD25843120002308AF002208AE002108A4
:100AC000AD002008AC000130B3003130B2002D3051
:100AD000B1000030B0008F31A7278431FF302000F3
:100AE0002C07C100FF302D3DC200FF302E3DC3005A
:100AF000FF302F3DC4004108BD004208BE0043083E
:100B0000BF004408C0000830C036BF0CBE0CBD0C8E
:100B1000890B842D3D0823009C00FF3020004105F7
:100B2000BD0000304205BE003D0823009B002000B0
:100B30003E0823009C000B172100911611128B1701
:100B40000800F80021005208F1005108F0008B3134
:100B5000C623853121004B087002F4004C08713B1C
:100B6000F5007508803AF20083307202031DBA2D39
:100B7000E1307402031CBD2DBE2DC32D01308B311D
:100B800095238531C72D00308B3195238531210088
:100B90005208F1005108F0008B31C62385317108ED
:100BA000F7007008F6007708F1007608F0008B3146
:100BB000C623853121004C087106031DE12D4B0829
:100BC0007006031DE42DE52D002E20000E160330C7
:100BD000F3008A30F2005630890BEC2DF20BEC2D2D
:100BE000F30BEC2D20000E120330F3008A30F200DC
:100BF0005630890BF92DF20BF92DF30BF92D182E28
:100C00005208F1005108F0008B31C623853171087C
:100C10002100D2007008D100F030F2002330F30040
:100C20005108720786005208733D870078088100DA
:100C3000080001302000BE00210046082000C0004E
:100C4000210045082000BF001F30C2000030C30053
:100C50002200BF01532EFF302000C207FF30C33DEA
:100C60003B080F39C1000A3041020318382E392ED3
:100C70003C2E3030C1073E2E5730C1074208203E7F
:100C800086000130870041088100BE01FF30BF07A8
:100C9000FF30C03D3B0E0F39BB003C0EF039BB04AA
:100CA0003C0E0F39BC0020004308803ABD00803064
:100CB0003D02031D5D2E02304202031C602E612E98
:100CC0007F2E20003B083C04031D672E682E2B2E30
:100CD0003E08031D6C2E6D2E2B2E4008803ABD0061
:100CE00080303D02031D762E01303F02031C792E19
:100CF0007A2E7F2E2100CD187E2E7F2E2B2E2000C7
:100D00003A08B2003908B1004208203EB30040085A
:100D1000B5003F08B4008E316626863108002000F9
:100D2000A2000330890B922E00002000220822002E
:100D30008F0021004E08031D9E2E9F2EB92E0330DA
:100D4000890BA02E000022000E1502302000A10009
:100D50004530A000A930890BAB2EA00BAB2EA10B08
:100D6000AB2E003222000E110330890BB52E00008D
:100D7000F32E4E03031DBD2EBE2ED42E0330890B41
:100D8000BF2E000022000E1141302000A000EE30E6
:100D9000890BC82EA00BC82E000022000E150330B0
:100DA000890BD02E0000F32E02304E06031DD92EE3
:100DB000DA2EF32E0330890BDB2E000022000E11F9
:100DC00002302000A1004530A000A930890BE62E9A
:100DD000A00BE62EA10BE62E003222000E150330EA
:100DE000890BF02E000008002000AC01AD012608A0
:100DF00086008701403FA800413FA90028088400E1
:100E00002908850012002A3A031D072F082F372FC3
:100E10002608860087010130810741310318810AC5
:100E200027088600870101088400850102308107B8
:100E3000003FAC00013FAD004B2F2D08A1002C0856
:100E4000A0000A30A2000030A3008C31D5248631E6
:100E500020002B082007AC000030213DAD00260803
:100E6000860087010130810741310318810A260875
:100E700086008701403FA800413FA9002808840060
:100E8000290885000008D03EAB000A302B02031C65
:100E90004A2F4B2F1D2F2D08A7002C08A600080055
:100EA0002000A501A11F552F562F5D2FA009A109D4
:100EB000A00A0319A10A0130A500A31F602F612F0A
:100EC000682FA209A309A20A0319A30A0130A506E3
:100ED000A601A7012008210403196F2F702F9D2F51
:100EE0000130A4007A2F0130A035A10D890B742F99
:100EF0000130A407A11F7D2F7E2F732F0130A6354F
:100F0000A70D890B7F2F21082302031D892F20089D
:100F10002202031C8C2F8D2F922F2008A202210861
:100F2000A33B26140130A136A00C890B932F01306E
:100F3000A402031D9C2F9D2F7E2F25080319A12F8E
:100F4000A22FA72FA609A709A60A0319A70A2708EF
:100F5000A1002608A0000800CB2F20008E1503302A
:100F60002000A3008A30A2005530890BB52FA20BB8
:100F7000B52FA30BB52F003220008E1103302000B7
:100F8000A3008A30A2005530890BC42FA20BC42FB6
:100F9000A30BC42F00328C315D248731003A031D2E
:100FA000D22FD32FAD2F8B1321009112F0302000C0
:100FB000A2002330A30021004B0820002207860056
:100FC00021004C082000233D87000108A4002100D7
:100FD0004C082000A10021004B082000A0008B310C
:100FE000EA238731200021082100CC0020002008BE
:100FF0002100CB008B179116200024080800080060
:10172A00F000700C2000031C0C1203180C160800A1
:10173A006400800101310130FE020030FF3B7F0866
:10174A007E04031D9E2B0034F030F0002330F1009C
:10175A0021004B08700786004C08713D870001087C
:10176A00080020002108A200200822008D00200085
:10177A0022080F3922008C001030890BC22B00324C
:10178A000800700A033003197106031DCD2BCE2BF6
:10179A00D12BF001F101D72B7008013EF000003087
:1017AA00713DF10008002000A71BDC2BDD2BDE2B8E
:1017BA00E92B2609A8002709A900A80A0319A90ADA
:1017CA002808A6002908A70008002000200A0330DC
:1017DA0003192106031DF22BF32BF62BA001A101FD
:1017EA00FC2B2008013EA0000030213DA10008008A
:1017FA002000A000012C00002000111E052C062C40
:10180A00002C200823009A000B2C000023009E1CA9
:10181A000F2C102C0A2C08002000A0006130200296
:10182A00031C182C192C1C2C2008A93E272C4130EB
:10183A002002031C212C222C252C2008C93E272CEF
:10184A002008D03E0800F0302000A0002330A1007C
:10185A000030A200A3000030A4000430A5008C319F
:10186A0040248C312100CB01CC01FF30D100033060
:10187A00D200D001080020002108A7002008A600F5
:10188A00502C26088600270887002208810001308C
:10189A00A6070030A73D0130A4020030A53B240A68
:1018AA00031D5B2C250A031D5B2C5C2C462C0800AF
:1018BA00210052082000A100210051082000A000A8
:1018CA008B31EA238C3121004C0820002106031DAC
:1018DA00722C21004B0820002006031D752C762C43
:1018EA00782C0130792C0030080020005808DC00E0
:1018FA005708DB008B2C5608C7005508C6005B301A
:10190A00C8005908C900803171208C3120005B0859
:10191A0084005C0885001200031D942C952C802CF1
:10192A00D501D601080060302000E2005D08E3001E
:10193A00E401E501E601EC01ED016330D500003078
:10194A00D6005F08D8005E08D7006230D9008C3113
:10195A007A248C3120005D086507860087018101A1
:10196A000800F10123001D1DBB2CBC2CBE2C19083C
:10197A00D32C9D1CC12CC22CC52C1D121D16D32C78
:10198A002000911EC92CCA2CD32C7008860087010E
:10199A00230019087F3981000130F100710808001D
:1019AA002000A401A501201CDB2CDC2CE02C220841
:1019BA00A4072308A53D0130A235A30D890BE12C0C
:1019CA000130A136A00C890BE62C20082104031D46
:1019DA00EF2CF02CD82C2508A1002408A000080020
:1019EA002000AF01B0010C2D2E08AC00AD012C086F
:1019FA00A0002D08A1002B08A3002A08A2008F31FD
:101A0A004E278C3101302000AF070030B03D290845
:101A1A002F078600013087000108AE002E08031D3B
:101A2A00172D182DF92C08008E31AE268D31200085
:101A3A0021082100A900200020082100A800A030C8
:101A4A002000DD009230DE009030DF0021002908FE
:101A5A002000E100210028082000E0008C319824B1
:101A6A008D31A0302000A0000030A1008D31682502
:101A7A008D310800FF3021008F0000320032000053
:101A8A0021004E08031D4A2D4B2D4F2D22000E100A
:101A9A000E11602D4E03031D532D542D582D220077
:101AAA000E100E11602D02304E06031D5D2D5E2DA7
:101ABA00602D22000E1100320032000020000F08B3
:101ACA00A000200808006A2D00002000111E6E2DBB
:101ADA006F2D692D2108A4002008A300872D230853
:101AEA00840024088500000823009A0001302000A1
:101AFA00A3070030A43D822D000023009E1C862DE2
:101B0A00872D812D200023088400240885001200D7
:101B1A00031D902D912D742D080021001D10230006
:101B2A008C018D018E018F01900121000C108C1007
:101B3A000C118C110C128C1620000C1221008D0134
:101B4A000E108E100E118E110E128E120E178E1787
:101B5A0020000E148E140E118E110E128E12FF30EA
:101B6A0021008F009001220010109010101108001F
:101B7A0000302000AB000030AA000030A90000307D
:101B8A00A800201CC92DCA2DD22D2408A807250873
:101B9A00A93D2608AA3D2708AB3D0130A435A50D6D
:101BAA00A60DA70D890BD32D0130A336A20CA10CCB
:101BBA00A00C890BDA2D2308220421042004031D1A
:101BCA00E72DE82DC62D2B08A3002A08A200290814
:101BDA00A1002808A000080021005208F1005108BD
:101BEA00F0008B31C6238D3121004B087002F500BD
:101BFA004C08713BF6007608803AF4008330740290
:101C0A00031D092EE1307502031C0C2E0D2E112E18
:101C1A0001308B3195238D317608803AF40080307B
:101C2A007402031D1A2E2030750203181D2E1E2E53
:101C3A00222E00308B3195238D317608F3007508FA
:101C4A00F20008008731AC278E31D03E2100CE0049
:101C5A004E08031D312E322E3A2E0030C9000830AC
:101C6A00CA002000101090105E2E4E03031D3E2E57
:101C7A003F2E472E0030C9001030CA002000101431
:101C8A0090105E2E02304E06031D4C2E4D2E552E00
:101C9A000030C9001030CA002000101090145E2EC7
:101CAA0060302000A0009030A1008D3168258E316F
:101CBA00652E9630A0009030A1008D3168258E31B6
:101CCA00080021004D1C6A2E6B2E752E2000330849
:101CDA00A9003208AB003108AA008C31F5248E31F4
:101CEA002000B51F792E7A2E7C2EB401B501B701DA
:101CFA00B801902E20302000A0000030A100320848
:101D0A00A3003108A2008F314E278E310130200006
:101D1A00B7070030B83D3808803AB6003508803A2F
:101D2A003602031D9A2E34083702031C9D2E9E2E5E
:101D3A007F2E21004D18A22EA32EAD2E200033088F
:101D4A00A9003208AB003108AA008C31F5248E3183
:101D5A0008002100911223001F142000911EB62EA4
:101D6A00B72EBA2E23001908DE2E0E1607302000D1
:101D7A00A3005830A2005930890BC12EA20BC12EE4
:101D8A00A30BC12E003220000E1207302000A30040
:101D9A005830A2005930890BD02EA20BD02EA30B9B
:101DAA00D02E003223009F1FDB2EDC2EB22E9F1373
:101DBA00B22E1C082000A200A3012208A300A2013F
:101DCA0023001B0820002204A50023001C08200071
:101DDA002304A6002508A7002608A8000E12210041
:101DEA00911620002808A1002708A000080020005A
:101DFA00A501A31F012F022F092FA209A309A20AD5
:101E0A000319A30A0130A500A11F0C2F0D2F122FB1
:101E1A00A009A109A00A0319A10A2008210403198B
:101E2A00172F182F3F2F0130A400222F0130A03581
:101E3A00A10D890B1C2F0130A407A11F252F262FC6
:101E4A001B2F21082302031D2C2F20082202031C0A
:101E5A002F2F302F342F2008A2022108A33B013054
:101E6A00A136A00C890B352F0130A402031D3E2F89
:101E7A003F2F262F25080319432F442F492FA20944
:101E8A00A309A20A0319A30A2308A1002208A00091
:101E9A0008002000220823040319542F552F5B2F12
:101EAA0022082304031D5A2F5B2F602F2008873135
:101EBA00FF278F31A62F2208860087014931160095
:101ECA0001040319692F6A2F882F220886008701C7
:101EDA004931403FA400413FA500220886008701FE
:101EEA004231403FA600413FA7002708803AA80098
:101EFA002508803A2802031D842F24082602031885
:101F0A00872F882FA62F20002208860087014231BA
:101F1A002208840023088500003FA400013FA50091
:101F2A00403F24078400413F253D8500200880006A
:101F3A0022088600870142310130810741310318A6
:101F4A00810A080000302000B7000030B6000030D7
:101F5A00B5000030B4002F082E042D042C040319F8
:101F6A00B72FB82FF72F0130B800C42F0130AC3586
:101F7A00AD0DAE0DAF0D890BBC2F0130B807AF1FE9
:101F8A00C72FC82FBB2F0130B435B50DB60DB70D0D
:101F9A00890BC92F2F083302031DDD2F2E083202A9
:101FAA00031DDD2F2D083102031DDD2F2C08300201
:101FBA00031CE02FE12FEA2F2C08B0022D08B13BB9
:101FCA002E08B23B2F08B33B34140130AF36AE0CA7
:101FDA00AD0CAC0C890BEB2F0130B802031DF62FA8
:101FEA00F72FC82F3708AF003608AE003508AD0006
:101FFA003408AC00080045347234613473346534F3
:10200A00203463346834653463346B342034663482
:10201A00613469346C34203461347434203461346A
:10202A006434643472346534733473342034003461
:10203A005734723469347434653420346134623408
:10204A006F3472347434653464340A34003443347B
:10205A006834653463346B342034613462346F34E9
:10206A0072347434653464340A3400345234653456
:10207A00613464342034613462346F3472347434B9
:10208A00653464340A34003441346C34723465344F
:10209A00613464347934203469346E346934743484
:1020AA0000343034783425343034343478342034BD
:1020BA003D3420340034623461346434203474345E
:1020CA00793470346534003430347834253430341B
:1020DA00323478340A3400342534303434347834A1
:1020EA003A34203400344534523452344F34523462
:1020FA000034323435343334323400343234373401
:10210A0033343234003432343734313436340034F0
:10211A0025343034323478340034253464340A3483
:08212A0000344F344B34003443
:020000040001F9
:04000E00E239FF3E96
:00000001FF
