:0400000080314028E3
:100008007E1480312000A3018B132100911223302C
:100018008E315A2680312000A200220803191528A3
:1000280016283B2823088331E72380318F313F2767
:10003800803173082000A1007208A0008D311A25B4
:100048008031243A031D29282A283B28200021082A
:10005800803AFB0080307B02031D342802302002E6
:10006800031C372838283B282100DC01DC0A210042
:1000780091168B177E100900803142288731FA27A4
:100088008031E5008731FB278031E600F0308400BD
:10009800233085000030FE000430FF008D31262516
:1000A8008031FC01FD01E301E401D330840000301C
:1000B80085000A30FE000030FF008D312625803192
:1000C80020308400013085002030FE000030FF0021
:1000D8008D31262580317E1020008531532D20005A
:1000E800D100460886008701403FC800413FC9004B
:1000F80048088400490885001200253A031D852810
:100108008628592946088600870101308107413130
:100118000318810A2100D301D40103100030031809
:1001280001302000E300FF302100D500FF30D60069
:100138002000CC01BC28E314460886008701013062
:10014800810741310318810ABC28CC01CC0ABC289C
:10015800460886008701403FC800413FC90048085B
:100168008400490885000008303A03199F28A92807
:100178004C080319C028C128AC284708AA0046081B
:100188008531C125803120002B082100D4002000B2
:100198002A082100D300D41FD228D328DB28200026
:1001A80063142100D309D409D30A0319D40A2000FF
:1001B800460886008701403FD200413FD3005208DD
:1001C8008400530885001200643A0319EC28ED28CE
:1001D800F72852088400530885001200693A031D65
:1001E800F628F7281929470886008701010884009E
:1001F800850102308107003FCD00013FCE00520843
:10020800013EC8000030533DC900460886008701FA
:100218004808C03F4908C13F4E08BB004D08BA0016
:1002280051088131722180317129520884005308A4
:1002380085001200783A031D222923294F294708EF
:100248008600870101088400850102308107003F8C
:10025800CD00013FCE005208013EC8000030533D9A
:10026800C9004608860087014808C03F4908C13FC1
:1002780046294E08BB004D08BA005108843167244E
:100288008031712952088400530885000008783AA3
:1002980003193D294F2920004608860087010130AF
:1002A800810741310318810A7129460886008701B0
:1002B800403FC800413FC9004808840049088500FC
:1002C8000008CA00CB014A08A4004B08A500510841
:1002D800A6008731302780314F2908002000BD0053
:1002E800C001C00ABB1B79297B2901307C29003059
:1002F800C300210054082000C20021005308200038
:10030800C1004308031989298A299E29FF30C1079A
:10031800FF30C23D4308031D9229932998292B30A9
:10032800BE000030BF009C292D30BE000030BF0049
:100338003E08C3001F30C4000030C5002200BF01C2
:10034800DA29FF30C407FF30C53D4408203E860047
:10035800013087000A30A4000030A5003B08A70040
:100368003A08A6008631DC26813120002508AC0039
:100378002408AB008D316525813120002B08303EE3
:100388008100C001FF30C107FF30C23D0A30A40020
:100398000030A5003B08A7003A08A60086312126B0
:1003A800813120002508BB002408BA002000450838
:1003B800803ABC0080303C02031DE429013044022D
:1003C800031CE729E829062A20003A083B04031DF4
:1003D800EE29EF29A5294008031DF329F429A529A9
:1003E8004208803ABC0080303C02031DFD290130E0
:1003F8004102031C002A012A062A2000E318052AC4
:10040800062AA5292000430803190B2A0C2A172AB3
:10041800FF30C407FF30C53D4408203E8600013048
:100428008700430881004408203EB3004208B50015
:100438004108B4003D088F317427813108008B13BF
:100448002100111691160E178E1723009F159F1065
:100458001D169D171E121E159E16200041084004E9
:100468003F043E040319392A3A2ACA2A23009F1D49
:100478003E2A3F2A472A1E1D422A432A472A043079
:100488002000CA00682A9F1D4A2A4B2A532A1E198F
:100498004E2A4F2A532A10302000CA00682A9F1972
:1004A800562A572A5C2A1E1D5A2A5B2A5C2A4F2A7A
:1004B8009F195F2A602A682A1E19632A642A682AF3
:1004C80040302000CA00682A23001E1E6C2A6D2AAC
:1004D800702A40302000CA0020004A08C200C30128
:1004E800C401C5014508A7004408A6004308A500A3
:1004F8004208A4004108AB004008AA003F08A90030
:100508003E08A8008F310B27823120002708B3004E
:100518002608B2002508B1002408B0000130B70051
:100528003130B6002D30B5000030B4008631812658
:100538008231FF3020003007C600FF30313DC70050
:10054800FF30323DC800FF30333DC9004608C200C5
:100558004708C3004808C4004908C5000830C53624
:10056800C40CC30CC20C890BB32A420823009C009C
:10057800FF3020004605C20000304705C30042088E
:1005880023009B002000430823009C000B17210038
:10059800911611128B1708002100C00122000E14B9
:1005A8008E100E152100C101C2015C08031DDD2A51
:1005B800DE2AED2A3B30BD009030BE003E08200008
:1005C800A50021003D082000A4008731D0278231F2
:1005D8005B2B42082000A500210041082000A40050
:1005E8008D31322582318D31422582312100BF0083
:1005F8004008031D002B012B1A2B68302000DB005C
:100608009030DC00210042082000DE002100410873
:100618002000DD00AD308E313B268231AD30200028
:10062800A4000030A5008731D02782317430200023
:10063800DB009030DC0021003F082000E000E101F1
:100648006008DD006108DE00AD308E313B26823166
:10065800AD302000A4000030A5008731D0278231BA
:100668000F3021004006031D3A2B3B2B412BC001C4
:100678000A308D318A2582314B2B20308D318A25E5
:10068800823101302000E00060082100C0070130FD
:100698002100C1070030C23D043042020030031976
:1006A8004102031C582B592BD92A22008E1408000A
:1006B8002100CD01CD0A22000E148E100E15210046
:1006C800D101D2015C08031D6A2B6B2B7A2B2C30CD
:1006D800CF009030D00050082000A50021004F081E
:1006E8002000A4008731D0278331E62B5208200050
:1006F800A500210051082000A4008D313225833146
:100708008D31422583312100CE004E0A03198D2BED
:100718008E2BCC2B00302000A4009030A500873110
:10072800D027833156302000DB009030DC002100D8
:1007380052082000DE00210051082000DD00AD3005
:100748008E313B268331AD302000A4000030A50057
:100758008731D027833160302000DB009030DC0007
:1007680021004E082000E000E1016008DD0061087A
:10077800DE00AD308E313B268331AD302000A40041
:100788000030A5008731D02783312100CD01D92B36
:100798000130D1070030D23D04305202183003191D
:1007A8005102031CD82BD92B662B22008E14210052
:1007B8004D080319E02BE12BE62B7D30CF0090305C
:1007C800D0006F2B0800FA0020006608F1006508C9
:1007D800F0008D31532583317C087002F6007D08C6
:1007E800713BF7007708803AF20083307202031DEC
:1007F800FF2BE1307602031C022C032C082C01305D
:100808008D31122583310C2C00308D311225833126
:1008180020006608F1006508F0008D31532583310A
:100828007108F9007008F8007908F1007808F000FC
:100838008D31532583317D087106031D252C7C08D5
:100848007006031D282C292C442C20000E1603307A
:10085800F3008A30F2005630890B302CF20B302C22
:10086800F30B302C20000E120330F3008A30F20014
:100878005630890B3D2CF20B3D2CF30B3D2C662C8E
:1008880020006608F1006508F0008D31532583319A
:1008980071082000E6007008E500F030F20023300F
:1008A800F30065087207F4006608733DF5007408E4
:1008B8008600750887007A08810001302100D90771
:1008C8000030DA3D08002000BD00BE01BE0A21004C
:1008D80054082000C000210053082000BF001F302A
:1008E800C2000030C3002200BF01A52CFF30C207A0
:1008F800FF30C33D3A080F39C1000A3041020318DE
:10090800862C872C8C2C3030BC003C08C107902CDE
:100918005730BC003C08C1074208203E8600013021
:10092800870041088100BE01FF30BF07FF30C03D8E
:100938003A0E0F39BA003B0EF039BA043B0E0F39A4
:10094800BB0020004308803ABC0080303C02031DF5
:10095800AF2C02304202031CB22CB32CD12C200045
:100968003A083B04031DB92CBA2C7A2C3E08031D07
:10097800BE2CBF2C7A2C4008803ABC0080303C0248
:10098800031DC82C01303F02031CCB2CCC2CD12CCE
:100998002000E318D02CD12C7A2C20004208203ECD
:1009A800B3004008B5003F08B4003D088F317427F4
:1009B8008431080021008F0122000E108E100E15C0
:1009C8002100B501B6015C08031DEB2CEC2CFB2CB7
:1009D8001D30AD009030AE002E082000A50021008B
:1009E8002D082000A4008731D0278431522D8F3163
:1009F800B32784312100B40034088D319E25843119
:100A08002100AF008F31B32784312100B4003408AE
:100A18008D319E2584312100B0002F082000E00090
:100A28000330E035FF3E031D152D603521003007EA
:100A3800B10036082000A500210035082000A400D8
:100A48008D3132258431210031088E311E268431C2
:100A580001302100B5070030B63D043036020030C1
:100A680003193502031C392D3A2DE72C22000E10EC
:100A78008E100E15FF3021008F007D302000DB0026
:100A88009030DC00B2308E313B268431B230200009
:100A9800A4000030A5008731D02784310800003039
:100AA8002000C1000030C0000030BF000030BE0090
:100AB8008231232285318E31E42685318E31BF265D
:100AC8008531210091168B1721005C0803196D2DC3
:100AD8006E2DB72D20008E110E168F31B32785315C
:100AE8008F31B32785312000E20031306206031DC3
:100AF8007E2D7F2D832D8231D0228531B32D32304A
:100B08006206031D882D892D8D2D8431DE248531C3
:100B1800B32D33306206031D922D932D972D83310B
:100B28005C238531B32D55306206031D9C2D9D2D08
:100B3800A52D4930A4009030A5008731D0278531F4
:100B4800B32D34306206031DAA2DAB2DB32D6F30A3
:100B5800A4009030A5008731D0278531B32D8D3181
:100B6800CC258531BA2D20008E150E121030890B38
:100B7800BB2D0032682D803140282000B200B00122
:100B8800B101320886008701403FAC00413FAD000B
:100B98002C0884002D08850012002A3A031DD52D43
:100BA800D62D082E32088600870101308107413191
:100BB8000318810A2A088600870101088400850134
:100BC80002308107003FB000013FB1001C2E2F0802
:100BD800AC00AD013108A5003008A4000A30A60019
:100BE8000030A7008E317A26853120002C08240792
:100BF800B0002D08253DB10032088600870101307C
:100C0800810741310318810A320886008701403F75
:100C1800AC00413FAD002C0884002D088500000879
:100C2800D03EAF000A302F02031C1B2E1C2EEB2DCA
:100C38003108AB003008AA0008002000AA01A51F4F
:100C4800262E272E2E2EA409A509A40A0319A50AC3
:100C5800AA01AA0AA71F312E322E3B2EA609A709E0
:100C6800A60A0319A70A0130A8002808AA06AB019A
:100C7800AC01240825040319422E432E722EA90123
:100C8800A90A4F2E0130A435A50D890B472E013036
:100C9800A8002808A907A51F522E532E462E01305A
:100CA800AB35AC0D890B542E25082702031D5E2E8B
:100CB80024082602031C612E622E672E2408A60231
:100CC8002508A73B2B140130A536A40C890B682EE8
:100CD8000130A902031D712E722E532E2A08031902
:100CE800762E772E7C2EAB09AC09AB0A0319AC0A19
:100CF8002C08A5002B08A400080000302000BC0028
:100D08000030BB000030BA000030B90033083204AC
:100D1800310430040319912E922ED32EBD01BD0A41
:100D2800A02E0130B035B10DB20DB30D890B962E42
:100D38000130B8003808BD07B31FA32EA42E952E86
:100D48000130B935BA0DBB0DBC0D890BA52E330882
:100D58003702031DB92E32083602031DB92E310899
:100D68003502031DB92E30083402031CBC2EBD2EDB
:100D7800C62E3008B4023108B53B3208B63B3308FA
:100D8800B73B39140130B336B20CB10CB00C890B37
:100D9800C72E0130BD02031DD22ED32EA42E3C082F
:100DA800B3003B08B2003A08B1003908B0000800A7
:100DB8002000AA01A71FE12EE22EE92EA609A70905
:100DC800A60A0319A70AAA01AA0AA51FEC2EED2E46
:100DD800F22EA409A509A40A0319A50A24082504C2
:100DE8000319F72EF82E212FA901A90A042F013083
:100DF800A435A50D890BFC2E0130A8002808A907E9
:100E0800A51F072F082FFB2E25082702031D0E2FCD
:100E180024082602031C112F122F162F2408A602BD
:100E28002508A73B0130A536A40C890B172F0130E4
:100E3800A902031D202F212F082F2A080319252F67
:100E4800262F2B2FA609A709A60A0319A70A2708E0
:100E5800A5002608A4000800200026080319352F3D
:100E6800362F3B2F2608031D3A2F3B2F402F2408EF
:100E78008731FC278731812F2608093E86008701A4
:100E8800160001040319492F4A2F682F2608093E26
:100E980086008701403FA700413FA8002608023E80
:100EA80086008701403FA900413FAA002A08803AEE
:100EB800AB002808803A2B02031D642F270829025B
:100EC8000318672F682F812F2000260886008701C6
:100ED8002608023E8400850100080107A7002708AC
:100EE80086008701240881002608023E86008701C3
:100EF8000130810741310318810A0800210091124D
:100F080023001F142000911E8A2F8B2F8E2F230061
:100F18001908B22F0E1607302000A7005830A60077
:100F28005930890B952FA60B952FA70B952F0032BB
:100F380020000E1207302000A7005830A6005930B4
:100F4800890BA42FA60BA42FA70BA42F00322300D4
:100F58009F1FAF2FB02F862F9F13862F1C082000AE
:100F6800A600A7012608A700A60123001B08200049
:100F78002604A90023001C0820002704AA00290829
:100F8800AB002A08AC000E122100911620002C0894
:100F9800A5002B08A4000800D22F00002000111E75
:100FA800D62FD72FD12F2508A8002408A700EF2F68
:100FB8002708840028088500000823009A000130CB
:100FC8002000A7070030A83DEA2F000023009E1C40
:100FD800EE2FEF2FE92F200027088400280885002E
:100FE8001200031DF82FF92FDC2F0800FF340334FB
:020FF8000800EF
:101A2400F000700C2000031C0C1203180C160800A4
:101A3400F030F0002330F1007C08700786007D0848
:101A4400713D870001080800640080010131013004
:101A5400FE020030FF3B7F087E04031D272D003467
:101A640020002508A600240822008D002000260856
:101A7400033922008C001030890B3E2D00320800FF
:101A8400FF3021008F0000320032000022000E14CB
:101A94008E1000320032000020000F08A400240839
:101AA4000800700A033003197106031D5A2D5B2DBB
:101AB4005E2DF001F101642D7008013EF00000304C
:101AC400713DF10008002000AC1B692D6A2D6B2DBF
:101AD400762D2B09AD002C09AE00AD0A0319AE0A10
:101AE4002D08AB002E08AC0008002000240A0330A7
:101AF40003192506031D7F2D802D832DA401A50127
:101B0400892D2408013EA4000030253DA5000800CD
:101B14002000A4008E2D00002000111E922D932D74
:101B24008D2D240823009A00982D000023009E1C6C
:101B34009C2D9D2D972D08002000A40061302402C7
:101B4400031CA52DA62DA92D2408A93EB42D413092
:101B54002402031CAE2DAF2DB22D2408C93EB42D92
:101B64002408D03E080020006608A5006508A400EB
:101B74008D3177258D317D0820002506031DC42D68
:101B84007C082406031DC72DC82DCA2D0130CB2D7A
:101B940000300800F0302000A4002330A5000030FD
:101BA400A600A7000030A8000430A9008E31012649
:101BB4008D31FC01FD01FF302000E5000330E6001B
:101BC4002100DC0108002000D8005508DA00540880
:101BD400D900F42D5930C6005608C7005808803182
:101BE40073208D312000590884005A0885001200A2
:101BF400031DFD2DFE2DEC2DD401D5010800200080
:101C04002508AB002408AA00112E2A0886002B08F8
:101C14008700260881000130AA070030AB3D01305F
:101C2400A8020030A93B280A031D1C2E290A031D03
:101C34001C2E1D2E072E08002000A50000320032A5
:101C440000002000250822008F001030890B282E68
:101C5400003222000E1107302000A4007D30890BD1
:101C6400312EA40B312E22000E150032003200005A
:101C740008002100A1005D30A0002108A200A401F9
:101C8400A501AB01AC0120005C08D5005B08D400C1
:101C9400A030D600A2308D31E5258E3121002408F4
:101CA40021072000DF005F0886008701810108000A
:101CB400F000F10123001D1D602E612E632E190812
:101CC400782E9D1C662E672E6A2E1D121D16782EE8
:101CD4002000911E6E2E6F2E782E700886008701CC
:101CE400230019087F398100F101F10A7108080005
:101CF4002000A801A901241C802E812E852E2608EF
:101D0400A8072708A93D0130A635A70D890B862E03
:101D14000130A536A40C890B8B2E24082504031D41
:101D2400942E952E7D2E2908A5002808A4000800CD
:101D34002000B200B001B101B02E2F08AD00AE01F9
:101D44002D08A4002E08A5002C08A60087313027F2
:101D54008E3101302000B0070030B13D3008320729
:101D6400AD002D088600013087000108AF002F0860
:101D7400031DBD2EBE2E9F2E0800873182278E3173
:101D8400200025082100B600200024082100B50009
:101D940079302000DB009030DC0021003608200080
:101DA400DE00210035082000DD00AD308E313B26F9
:101DB4008E31AD302000A4000030A5008731D0273B
:101DC4008E31080021001D1023008C018D018E012D
:101DD4008F01900121000C108C100C118C150C1229
:101DE4008C1620000C1221008D010E108E100E1185
:101DF4008E110E128E120E178E1720000E148E14D2
:101E04000E158E110E128E12FF3021008F009001DC
:101E1400080000302000AF000030AE000030AD00FC
:101E24000030AC00241C172F182F202F2808AC07D3
:101E34002908AD3D2A08AE3D2B08AF3D0130A83539
:101E4400A90DAA0DAB0D890B212F0130A736A60CC5
:101E5400A50CA40C890B282F270826042504240488
:101E6400031D352F362F142F2F08A7002E08A60088
:101E74002D08A5002C08A400080020006608F10025
:101E84006508F0008D3153258F317C087002F50010
:101E94007D08713BF6007608803AF40083307402C2
:101EA400031D562FE1307502031C592F5A2F5E2F44
:101EB40001308D3112258F317608803AF40080305C
:101EC4007402031D672F2030750203186A2F6B2FCD
:101ED4006F2F00308D3112258F317608F30075088D
:101EE400F20008002000B900631C792F7A2F802F9C
:101EF4003908AC0033088E319A268F312000B51F83
:101F0400842F852F872FB401B501B701B801992F0C
:101F140020302000A4000030A5003908A600873135
:101F240030278F3101302000B7070030B83D380822
:101F3400803AB6003508803A3602031DA32F3408D0
:101F44003702031CA62FA72F8A2F20006318AB2F5C
:101F5400AC2FB22F3908AC0033088E319A268F315A
:101F64000800D22F20008E1603302000A7008A30EC
:101F7400A6005530890BBC2FA60BBC2FA70BBC2F7A
:101F8400003220008E1203302000A7008A30A60001
:101F94005530890BCB2FA60BCB2FA70BCB2F0032A1
:101FA4008D31B5258F31003A031DD92FDA2FB42F87
:101FB4008B1321009112F0302000A6002330A700DB
:101FC4007C08260786007D08273D87000108A800B5
:101FD4007D08A5007C08A4008D3177258F31200071
:101FE4002508FD002408FC0001302100D70700303B
:101FF400D83D8B1791162000280808004534723408
:102004006134733465342034633468346534633440
:102014006B3420346634613469346C342034613474
:102024007434203461346434643472346534733405
:10203400733420340034573472346934743465345E
:102044002034613462346F347234743465346434EB
:102054000A34003443346834653463346B342034D4
:10206400613462346F3472347434653464340A34E1
:10207400003452346534613464342034613462345D
:102084006F3472347434653464340A340034413443
:102094006C34723465346134643479342034693492
:1020A4006E34693474340034303478342534303444
:1020B4003434783420343D342034003430347834AB
:1020C40025343034323478340A340034253430340E
:1020D400343478343A3420340034323437343034BD
:1020E40038340034253430343234783400342534F0
:0C20F40064340A3400344F344B340034A0
:020000040001F9
:04000E00E239FF3E96
:00000001FF
