:1000000080314028FF3403347E1480312000A30166
:100010008B132100911223308E317D2680312000F8
:10002000A20022080319152816283B28230883312B
:10003000CF2380318F318C27803173082000A100BD
:100040007208A0008D3151258031243A031D2928E2
:100050002A283B2820002108803AFB0080307B02C0
:10006000031D342802302002031C372838283B287F
:100070002100D801D80A210091168B177E100900A3
:1000800080314228803102208031E6008031032017
:100090008031E700F0308400233085000030FE001E
:1000A0000430FF008D315D258031FC01FD01E3014D
:1000B000E401E5012100D101D201D301D401D50130
:1000C000D601D701D80120308400013085002030CE
:1000D000FE000030FF008D315D2580317E10200054
:1000E0008431C22C2000D100460886008701403FA1
:1000F000C800413FC9004808840049088500120033
:10010000253A031D84288528502946088600870142
:100110000130810741310318810AE301E401031032
:10012000003003180130E500FF302100D100FF301E
:10013000D2002000CC01B928E514460886008701CA
:100140000130810741310318810AB928CC01CC0A5A
:10015000B928460886008701403FC800413FC900D2
:1001600048088400490885000008303A03199C2893
:10017000A6284C080319BD28BE28A9284708AA00AC
:10018000460885319025803120002B08E4002A089C
:10019000E300E41FCC28CD28D3286514E309E40943
:1001A000E30A0319E40A460886008701403FD200AB
:1001B000413FD30052088400530885001200643A7E
:1001C0000319E328E428EE28520884005308850028
:1001D0001200693A031DED28EE2810294708860011
:1001E000870101088400850102308107003FCD00AE
:1001F000013FCE005208013EC8000030533DC90007
:100200004608860087014808C03F4908C13F4E089C
:10021000BB004D08BA00510882311622803168298E
:1002200052088400530885001200783A031D1929EA
:100230001A2946294708860087010108840085019C
:1002400002308107003FCD00013FCE005208013E41
:10025000C8000030533DC9004608860087014808A1
:10026000C03F4908C13F3D294E08BB004D08BA00B8
:10027000510884314F248031682952088400530882
:1002800085000008783A03193429462920004608D9
:10029000860087010130810741310318810A6829EE
:1002A000460886008701403FC800413FC900480812
:1002B0008400490885000008CA00CB014A08A40050
:1002C0004B08A5005108A6008631FF26803146293B
:1002D00008008B132100111691160E178E1723009C
:1002E0009F159F101D169D171E121E159E1620008D
:1002F000410840043F043E0403197F298029102A45
:1003000023009F1D842985298D291E1D882989295F
:100310008D2904302000CA00AE299F1D9029912903
:1003200099291E1994299529992910302000CA006D
:10033000AE299F199C299D29A2291E1DA029A1290A
:10034000A22995299F19A529A629AE291E19A929EF
:10035000AA29AE2940302000CA00AE2923001E1E63
:10036000B229B329B62940302000CA0020004A082B
:10037000C200C301C401C5014508A7004408A60086
:100380004308A5004208A4004108AB004008AA00A9
:100390003F08A9003E08A8008F315827813120006E
:1003A0002708B3002608B2002508B1002408B000D1
:1003B0000130B7003130B6002D30B5000030B40048
:1003C000863150268131FF3020003007C600FF30D3
:1003D000313DC700FF30323DC800FF30333DC9001A
:1003E0004608C2004708C3004808C4004908C500C1
:1003F0000830C536C40CC30CC20C890BF92942085D
:1004000023009C00FF3020004605C2000030470555
:10041000C300420823009B002000430823009C00E7
:100420000B172100911611128B1708002000BD0038
:10043000C001C00ABB1B1D2A1F2A0130202A003020
:10044000C3006408C2006308C10043080319292AD5
:100450002A2A3E2AFF30C107FF30C23D4308031D50
:10046000322A332A382A2B30BE000030BF003C2A03
:100470002D30BE000030BF003E08C3001F30C40056
:100480000030C5002200BF017A2AFF30C407FF30C8
:10049000C53D4408203E8600013087000A30A40094
:1004A0000030A5003B08A7003A08A6008631AB261D
:1004B000823120002508AC002408AB008D319C253A
:1004C000823120002B08303E8100C001FF30C1077F
:1004D000FF30C23D0A30A4000030A5003B08A70051
:1004E0003A08A6008531F025823120002508BB009E
:1004F0002408BA0020004508803ABC0080303C0245
:10050000031D842A01304402031C872A882AA62A54
:1005100020003A083B04031D8E2A8F2A452A4008F2
:10052000031D932A942A452A4208803ABC00803051
:100530003C02031D9D2A01304102031CA02AA12A6E
:10054000A62A2000E518A52AA62A452A2000430845
:100550000319AB2AAC2AB72AFF30C407FF30C53DC8
:100560004408203E8600013087004308810044088B
:10057000203EB3004208B5004108B4003D088F3169
:10058000C127823108002100CD01CD0A22000E10C2
:100590000E112100CF01D0015808031DD02AD12A05
:1005A000DA2A2C302000A4009030A5008F312E27AD
:1005B0008231492B50082000A50021004F0820005F
:1005C000A4008D31692582318D3179258231210058
:1005D000CE004E0A0319ED2AEE2A2C2B0030200003
:1005E000A4009030A5008F312E2782315630200094
:1005F000DB009030DC00210050082000DE002100EC
:100600004F082000DD00AD308E315E268231AD30E6
:100610002000A4000030A5008F312E2782316030E9
:100620002000DB009030DC0021004E082000E000BC
:10063000E1016008DD006108DE00AD308E315E262C
:100640008231AD302000A4000030A5008F312E276C
:1006500082312100CD01392B0130CF070030D03D50
:1006600008305002003003194F02031C382B392B7D
:10067000CC2A22000E1421004D080319402B412BD7
:10068000492B7D302000A4009030A5008F312E270B
:10069000823108002100BE0122000E100E1121003F
:1006A000BF01C0015808031D562B572B602B3B3050
:1006B0002000A4009030A5008F312E278331CE2B4F
:1006C00040082000A50021003F082000A4008D3133
:1006D000692583318D31792583312100BD003E08A4
:1006E000031D732B742B8D2B68302000DB009030A2
:1006F000DC00210040082000DE0021003F0820002F
:10070000DD00AD308E315E268331AD302000A40097
:100710000030A5008F312E27833174302000DB009C
:100720009030DC0021003D082000E000E10160087D
:10073000DD006108DE00AD308E315E268331AD30E4
:100740002000A4000030A5008F312E2783310F3008
:1007500021003E06031DAD2BAE2BB42BBE010A308B
:100760008731EC278331BE2B20308731EC27833152
:1007700001302000E00060082100BE0701302100A8
:10078000BF070030C03D08304002003003193F026F
:10079000031CCB2BCC2B522B22000E140800FA008A
:1007A00020006708F1006608F0008D318A2583314A
:1007B0007C087002F6007D08713BF7007708803AEC
:1007C000F20083307202031DE72BE1307602031C36
:1007D000EA2BEB2BF02B01308D3149258331F42BA3
:1007E00000308D314925833120006708F10066080B
:1007F000F0008D318A2583317108F9007008F80006
:100800007908F1007808F0008D318A2583317D0860
:100810007106031D0D2C7C087006031D102C112C75
:100820002C2C20000E160330F3008A30F2005630D4
:10083000890B182CF20B182CF30B182C20000E121D
:100840000330F3008A30F2005630890B252CF20B6E
:10085000252CF30B252C4E2C20006708F100660890
:10086000F0008D318A25833171082000E70070087F
:10087000E600F030F2002330F30066087207F4005F
:100880006708733DF50074088600750887007A08CC
:10089000810001302100D5070030D63D080020003E
:1008A000BD00BE01BE0A6408C0006308BF001F305F
:1008B000C2000030C3002200BF01892CFF30C207F4
:1008C000FF30C33D3A080F39C1000A304102031816
:1008D0006A2C6B2C702C3030BC003C08C107742C87
:1008E0005730BC003C08C1074208203E860001305A
:1008F000870041088100BE01FF30BF07FF30C03DC7
:100900003A0E0F39BA003B0EF039BA043B0E0F39DC
:10091000BB0020004308803ABC0080303C02031D2D
:10092000932C02304202031C962C972CB52C2000ED
:100930003A083B04031D9D2C9E2C5E2C3E08031D93
:10094000A22CA32C5E2C4008803ABC0080303C02D4
:10095000031DAC2C01303F02031CAF2CB02CB52C76
:100960002000E518B42CB52C5E2C20004208203E57
:10097000B3004008B5003F08B4003D088F31C127DF
:100980008431080000302000C1000030C000003079
:10099000BF000030BE008131692184318F310727CB
:1009A00084318E31E2268431210091168B1721008B
:1009B00058080319DC2CDD2C262D20008E110E1674
:1009C00087319F27843187319F2784312000E200BF
:1009D00031306206031DED2CEE2CF22C83314A23BC
:1009E0008431222D32306206031DF72CF82CFC2CAA
:1009F000853130258431222D33306206031D012DCF
:100A0000022D062D8231C3228431222D55306206FB
:100A1000031D0B2D0C2D142D4930A4009030A50082
:100A20008F312E278431222D34306206031D192D7B
:100A30001A2D222D6F30A4009030A5008F312E2763
:100A40008431222D8D31EF258431292D20008E1502
:100A50000E121030890B2A2D0032D72C80314028FD
:100A600021008F0122000E140E112000AE01AF01F3
:100A700021005808031D3D2D3E2D472D1D3020001F
:100A8000A4009030A5008F312E2785318F2D87311E
:100A90009F2785312000AD002D088D31C12585317E
:100AA0002000AA0087319F2785312000AD002D0846
:100AB0008D31C12585312000AB002A08A900033003
:100AC000A935FF3E031D602D29352B07AC002F08EB
:100AD000A5002E08A4008D316925853120002C0841
:100AE0008E314126853101302000AE070030AF3D08
:100AF00008302F02003003192E02031C802D812D97
:100B0000382D22000E100E11FF3021008F007D3095
:100B10002000A4009030A5008F312E2785310800D9
:100B20002000B200B001B101320886008701403FC9
:100B3000AC00413FAD002C0884002D088500120058
:100B40002A3A031DA42DA52DD72D32088600870132
:100B50000130810741310318810A2A088600870184
:100B600001088400850102308107003FB000013F89
:100B7000B100EB2D2F08AC00AD013108A500300805
:100B8000A4000A30A6000030A7008E319D268531D2
:100B900020002C082407B0002D08253DB1003208A4
:100BA000860087010130810741310318810A32082C
:100BB00086008701403FAC00413FAD002C08840017
:100BC0002D0885000008D03EAF000A302F02031C1C
:100BD000EA2DEB2DBA2D3108AB003008AA00080031
:100BE0002000AA01A51FF52DF62DFD2DA409A509AC
:100BF000A40A0319A50AAA01AA0AA71F002E012EFA
:100C00000A2EA609A709A60A0319A70A0130A800F7
:100C10002808AA06AB01AC01240825040319112EEB
:100C2000122E412EA901A90A1E2E0130A435A50DB0
:100C3000890B162E0130A8002808A907A51F212E10
:100C4000222E152E0130AB35AC0D890B232E250835
:100C50002702031D2D2E24082602031C302E312EC0
:100C6000362E2408A6022508A73B2B140130A536F2
:100C7000A40C890B372E0130A902031D402E412EF2
:100C8000222E2A080319452E462E4B2EAB09AC09FD
:100C9000AB0A0319AC0A2C08A5002B08A400080015
:100CA00000302000BC000030BB000030BA00003033
:100CB000B90033083204310430040319602E612E68
:100CC000A22EBD01BD0A6F2E0130B035B10DB20D9F
:100CD000B30D890B652E0130B8003808BD07B31F6E
:100CE000722E732E642E0130B935BA0DBB0DBC0DBA
:100CF000890B742E33083702031D882E3208360202
:100D0000031D882E31083502031D882E3008340259
:100D1000031C8B2E8C2E952E3008B4023108B53B67
:100D20003208B63B3308B73B39140130B336B20C46
:100D3000B10CB00C890B962E0130BD02031DA12E03
:100D4000A22E732E3C08B3003B08B2003A08B10053
:100D50003908B00008002000AA01A71FB02EB12E4C
:100D6000B82EA609A709A60A0319A70AAA01AA0A62
:100D7000A51FBB2EBC2EC12EA409A509A40A0319C8
:100D8000A50A240825040319C62EC72EF02EA90192
:100D9000A90AD32E0130A435A50D890BCB2E013025
:100DA000A8002808A907A51FD62ED72ECA2E2508C9
:100DB0002702031DDD2E24082602031CE02EE12E4F
:100DC000E52E2408A6022508A73B0130A536A40C71
:100DD000890BE62E0130A902031DEF2EF02ED72E2F
:100DE0002A080319F42EF52EFA2EA609A709A60A39
:100DF0000319A70A2708A5002608A4000800200058
:100E000026080319042F052F0A2F2608031D092F72
:100E10000A2F0F2F24088D3148258631502F2608A0
:100E2000093E86008701160001040319182F192FA7
:100E3000372F2608093E86008701403FA700413F23
:100E4000A8002608023E86008701403FA900413FD6
:100E5000AA002A08803AAB002808803A2B02031D1A
:100E6000332F270829020318362F372F502F200041
:100E70002608860087012608023E840085010008B6
:100E80000107A7002708860087012408810026089B
:100E9000023E860087010130810741310318810A33
:100EA00008002100911223001F142000911E592FC9
:100EB0005A2F5D2F23001908812F0E1607302000AE
:100EC000A7005830A6005930890B642FA60B642F59
:100ED000A70B642F003220000E1207302000A7005D
:100EE0005830A6005930890B732FA60B732FA70B10
:100EF000732F003223009F1F7E2F7F2F552F9F13AC
:100F0000552F1C082000A600A7012608A700A6014F
:100F100023001B0820002604A90023001C08200031
:100F20002704AA002908AB002A08AC000E122100F1
:100F3000911620002C08A5002B08A4000800BE2F45
:100F400020008E1603302000A7008A30A6005530FE
:100F5000890BA82FA60BA82FA70BA82F00322000C3
:100F60008E1203302000A7008A30A6005530890B6E
:100F7000B72FA60BB72FA70BB72F00328D31D8256F
:100F80008731003A031DC52FC62FA02F8B132100D8
:100F90009112F0302000A6002330A7007C0826071D
:100FA00086007D08273D87000108A8007D08A50070
:100FB0007C08A4008D31AE25873120002508FD0076
:100FC0002408FC0001302100D3070030D43D8B17EA
:100FD00091162000280808002000A400F02F00002F
:100FE0002000111EF42FF52FEF2F240823009A0064
:100FF000FA2F000023009E1CFE2FFF2FF92F080060
:101A90000800F000700C2000031C0C1203180C1638
:101AA0000800F030F0002330F1007C087007860059
:101AB0007D08713D87000108080064008001013144
:101AC0000130FE020030FF3B7F087E04031D5E2DC7
:101AD000003420002508A600240822008D002000E4
:101AE0002608073922008C001030890B752D003232
:101AF0000800FF3021008F00003200320000220079
:101B00000E100E1100320032000020000F08A40059
:101B100024080800700A033003197106031D912D73
:101B2000922D952DF001F1019B2D7008013EF000E2
:101B30000030713DF10008002000AC1BA02DA12D4C
:101B4000A22DAD2D2B09AD002C09AE00AD0A031955
:101B5000AE0A2D08AB002E08AC0008002000240AB5
:101B6000033003192506031DB62DB72DBA2DA40188
:101B7000A501C02D2408013EA4000030253DA5008C
:101B800008002000A40061302402031CC82DC92DC8
:101B9000CC2D2408A93ED72D41302402031CD12D81
:101BA000D22DD52D2408C93ED72D2408D03E0800BB
:101BB00020006708A5006608A4008D31AE258D3190
:101BC0007D0820002506031DE72D7C082406031D43
:101BD000EA2DEB2DED2D0130EE2D00300800F03018
:101BE0002000A4002330A5000030A600A70000308C
:101BF000A8000430A9008E3124268D31FC01FD019E
:101C0000FF302000E6000330E7002100D801080083
:101C10002000D8005508DA005408D900172E593092
:101C2000C6005608C7005808803172208E31200047
:101C3000590884005A0885001200031D202E212E09
:101C40000F2ED401D501080020002508AB00240880
:101C5000AA00342E2A0886002B0887002608810057
:101C60000130AA070030AB3D0130A8020030A93B8B
:101C7000280A031D3F2E290A031D3F2E402E2A2E1F
:101C800008002000A50000320032000020002508D6
:101C900022008F001030890B4B2E003222000E15CF
:101CA00007302000A4007D30890B542EA40B542E45
:101CB00022000E1100320032000008002100A100B5
:101CC0005D30A0002108A200A401A501AB01AC0178
:101CD00020005C08D5005B08D400A030D600A230FC
:101CE0008E3108268E312100240821072000DF00D4
:101CF0005F088600870181010800F000F1012300E0
:101D00001D1D832E842E862E19089B2E9D1C892E28
:101D10008A2E8D2E1D121D169B2E2000911E912E97
:101D2000922E9B2E700886008701230019087F39A8
:101D30008100F101F10A710808002000A801A90141
:101D4000241CA32EA42EA82E2608A8072708A93DE8
:101D50000130A635A70D890BA92E0130A536A40C9C
:101D6000890BAE2E24082504031DB72EB82EA02EF5
:101D70002908A5002808A40008002000B200B0012E
:101D8000B101D32E2F08AD00AE012D08A4002E08FE
:101D9000A5002C08A6008631FF268E3101302000D8
:101DA000B0070030B13D30083207AD002D08860085
:101DB000013087000108AF002F08031DE02EE12E3F
:101DC000C22E0800873151278E31200025082100BE
:101DD000B600200024082100B50079302000DB0087
:101DE0009030DC00210036082000DE00210035089C
:101DF0002000DD00AD308E315E268E31AD3020000A
:101E0000A4000030A5008F312E278E31080021005C
:101E10001D1023008C018D018E018F019001210086
:101E20000C108C100C118C150C128C1620000C123E
:101E300021008D010E108E100E118E110E128E12B9
:101E40000E178E1720000E148E140E158E110E1202
:101E50008E12FF3021008F0090010800302F00000B
:101E60002000111E342F352F2F2F2508A8002408FD
:101E7000A7004D2F270884002808850000082300AC
:101E80009A0001302000A7070030A83D482F00002D
:101E900023009E1C4C2F4D2F472F20002708840025
:101EA000280885001200031D562F572F3A2F0800CF
:101EB00000302000AF000030AE000030AD00003038
:101EC000AC00241C642F652F6D2F2808AC0729084F
:101ED000AD3D2A08AE3D2B08AF3D0130A835A90D18
:101EE000AA0DAB0D890B6E2F0130A736A60CA50CE1
:101EF000A40C890B752F2708260425042404031D30
:101F0000822F832F612F2F08A7002E08A6002D08EF
:101F1000A5002C08A400080020006708F10066084E
:101F2000F0008D318A258F317C087002F5007D0824
:101F3000713BF6007608803AF40083307402031D8A
:101F4000A32FE1307502031CA62FA72FAB2F013062
:101F50008D3149258F317608803AF4008030740243
:101F6000031DB42F203075020318B72FB82FBC2FD4
:101F700000308D3149258F317608F3007508F20065
:101F800008002000B900651CC62FC72FCD2F3908C7
:101F9000AC0033088E31BD268F312000B51FD12F04
:101FA000D22FD42FB401B501B701B801E62F2030EC
:101FB0002000A4000030A5003908A6008631FF26C5
:101FC0008F3101302000B7070030B83D3808803A23
:101FD000B6003508803A3602031DF02F3408370268
:101FE000031CF32FF42FD72F20006518F82FF92F9B
:101FF000FF2F3908AC0033088E31BD268F31080021
:102000004534723461347334653420346334683455
:10201000653463346B3420346634613469346C3431
:102020002034613474342034613464346434723460
:102030006534733473342034003457347234693463
:10204000743465342034613462346F3472347434DF
:10205000653464340A34003443346834653463349A
:102060006B342034613462346F34723474346534C8
:1020700064340A34003452346534613464342034B6
:10208000613462346F3472347434653464340A34C5
:10209000003441346C3472346534613464347934DE
:1020A000203469346E346934743400343034783414
:1020B000253430343434783420343D342034003402
:1020C0003034783425343034323478340A340034BF
:1020D00025343034343478343A34203400343234D3
:1020E00037343134363400342534303432347834B3
:1020F0000034253464340A3400344F344B34003413
:020000040001F9
:04000E00E239FF3E96
:00000001FF
