:020000040000FA
:0400000080314028E3
:1000060008007E1480312000A3018B132100911279
:1000160023308E315A2680312000A200220803198F
:10002600152816283B28230884315D2480318E311B
:10003600E426803173082000A1007208A0008D31EB
:1000460034258031243A031D29282A283B282000FC
:100056002108803AFB0080307B02031D34280230E1
:100066002002031C372838283B282100ED01ED0A21
:10007600210091168B177E100900803142288731A6
:10008600FE278031E7008731FF278031E800F03016
:100096008400233085000030FE000430FF008D31DF
:1000A60040258031FC01FD01E501E6012100E50165
:1000B600E601E701E801E901EA01EB01EC01ED01E6
:1000C60020308400013085002030FE000030FF0023
:1000D6008D31402580317E1020008531402D200055
:1000E600D100460886008701403FC800413FC9004D
:1000F60048088400490885001200253A031D842813
:100106008528582946088600870101308107413134
:100116000318810A2100E501E601031000300318E7
:1001260001302000E500FF302100E700FF30E80045
:100136002000CC01BB28E514460886008701013063
:10014600810741310318810ABB28CC01CC0ABB28A0
:10015600460886008701403FC800413FC90048085D
:100166008400490885000008303A03199E28A8280B
:100176004C080319BF28C028AB284708AA00460820
:100186008531A825803120002B082100E6002000BB
:100196002A082100E500E61FD128D228DA28200007
:1001A60065142100E509E609E50A0319E60A2000B7
:1001B600460886008701403FD200413FD3005208DF
:1001C6008400530885001200643A0319EB28EC28D2
:1001D600F62852088400530885001200693A031D68
:1001E600F528F628182947088600870101088400A3
:1001F600850102308107003FCD00013FCE00520845
:10020600013EC8000030533DC900460886008701FC
:100216004808C03F4908C13F4E08BB004D08BA0018
:1002260051088131712180317029520884005308A8
:1002360085001200783A031D212922294E294708F4
:100246008600870101088400850102308107003F8E
:10025600CD00013FCE005208013EC8000030533D9C
:10026600C9004608860087014808C03F4908C13FC3
:1002760045294E08BB004D08BA0051088331E623D4
:100286008031702952088400530885000008783AA6
:1002960003193C294E2920004608860087010130B3
:1002A600810741310318810A7029460886008701B3
:1002B600403FC800413FC9004808840049088500FE
:1002C6000008CA00CB014A08A4004B08A500510843
:1002D600A6008731172780314E2908002000BD006F
:1002E600C001C00ABB1B78297A2901307B2900305E
:1002F600C300210066082000C20021006508200016
:10030600C10043080319882989299D29FF30C1079F
:10031600FF30C23D4308031D9129922997292B30AE
:10032600BE000030BF009B292D30BE000030BF004C
:100336003E08C3001F30C4000030C5002200BF01C4
:10034600D929FF30C407FF30C53D4408203E86004A
:10035600013087000A30A4000030A5003B08A70042
:100366003A08A6008631C326813120002508AC0054
:100376002408AB008D316F25813120002B08303EDB
:100386008100C001FF30C107FF30C23D0A30A40022
:100396000030A5003B08A7003A08A60086310826CB
:1003A600813120002508BB002408BA00200045083A
:1003B600803ABC0080303C02031DE3290130440230
:1003C600031CE629E729052A20003A083B04031DF9
:1003D600ED29EE29A4294008031DF229F329A429B1
:1003E6004208803ABC0080303C02031DFC290130E3
:1003F6004102031CFF29002A052A2000E518042AC9
:10040600052AA4292000430803190A2A0B2A162ABA
:10041600FF30C407FF30C53D4408203E860001304A
:100426008700430881004408203EB3004208B50017
:100436004108B4003D088F31C127813108008B1374
:100446002100111691160E178E1723009F159F1067
:100456001D169D171E121E159E16200041084004EB
:100466003F043E040319382A392AC92A23009F1D4E
:100476003D2A3E2A462A1E1D412A422A462A043081
:100486002000CA00672A9F1D492A4A2A522A1E1995
:100496004D2A4E2A522A10302000CA00672A9F1978
:1004A600552A562A5B2A1E1D592A5A2A5B2A4E2A83
:1004B6009F195E2A5F2A672A1E19622A632A672AFB
:1004C60040302000CA00672A23001E1E6B2A6C2AB1
:1004D6006F2A40302000CA0020004A08C200C3012B
:1004E600C401C5014508A7004408A6004308A500A5
:1004F6004208A4004108AB004008AA003F08A90032
:100506003E08A8008F318D27823120002708B300CE
:100516002608B2002508B1002408B0000130B70053
:100526003130B6002D30B5000030B4008631682673
:100536008231FF3020003007C600FF30313DC70052
:10054600FF30323DC800FF30333DC9004608C200C7
:100556004708C3004808C4004908C5000830C53626
:10056600C40CC30CC20C890BB22A420823009C009F
:10057600FF3020004605C20000304705C300420890
:1005860023009B002000430823009C000B1721003A
:10059600911611128B1708002100C00120000E10C1
:1005A6008E140E152100C101C2016D08031DDC2A3F
:1005B600DD2AEC2A6230BD009030BE003E082000E5
:1005C600A50021003D082000A4008F313627823186
:1005D6005A2B42082000A500210041082000A40053
:1005E6008D31812582318D314C2582312100BF002C
:1005F6004008031DFF2A002B192B82302000DB0048
:100606009030DC00210042082000DE002100410875
:100616002000DD00AD308E313B268231AD3020002A
:10062600A4000030A5008F313627823189302000A2
:10063600DB009030DC0021003F082000E000E101F3
:100646006008DD006108DE00AD308E313B26823168
:10065600AD302000A4000030A5008F31362782314E
:100666000F3021004006031D392B3A2B402BC001C9
:100676000A308D31A72582314A2B20308D31A725AE
:10068600823101302000E00060082100C0070130FF
:100696002100C1070030C23D043042020030031978
:1006A6004102031C572B582BD82A20000E14080091
:1006B6002100CD01CD0A20000E108E140E1521004A
:1006C600D101D2016D08031D692B6A2B792B53309A
:1006D600CF009030D00050082000A50021004F0820
:1006E6002000A4008F3136278331E52B52082000E5
:1006F600A500210051082000A4008D3181258331F9
:100706008D314C2583312100CE004E0A03198C2BE6
:100716008D2BCB2B00302000A4009030A5008F310C
:100726003627833170302000DB009030DC0021005A
:1007360052082000DE00210051082000DD00AD3007
:100746008E313B268331AD302000A4000030A50059
:100756008F31362783317A302000DB009030DC0081
:1007660021004E082000E000E1016008DD0061087C
:10077600DE00AD308E313B268331AD302000A40043
:100786000030A5008F31362783312100CD01D82BCB
:100796000130D1070030D23D04305202183003191F
:1007A6005102031CD72BD82B652B20000E142100D9
:1007B6004D080319DF2BE02BE52B1D30CF009030C1
:1007C600D0006E2B08002000BD00BE01BE0A21002D
:1007D60066082000C000210065082000BF001F3009
:1007E600C2000030C3002200BF01242CFF30C20724
:1007F600FF30C33D3A080F39C1000A3041020318E1
:10080600052C062C0B2C3030BC003C08C1070F2CE5
:100816005730BC003C08C1074208203E8600013024
:10082600870041088100BE01FF30BF07FF30C03D91
:100836003A0E0F39BA003B0EF039BA043B0E0F39A7
:10084600BB0020004308803ABC0080303C02031DF8
:100856002E2C02304202031C312C322C502C20004C
:100866003A083B04031D382C392CF92B3E08031D8E
:100876003D2C3E2CF92B4008803ABC0080303C02CF
:10088600031D472C01303F02031C4A2C4B2C502CD5
:100896002000E5184F2C502CF92B20004208203E52
:1008A600B3004008B5003F08B4003D088F31C127AA
:1008B60083310800FA0020006808F1006708F0009C
:1008C6008D315D2584317C087002F6007D08713B10
:1008D600F7007708803AF20083307202031D752C08
:1008E600F1307602031C782C792C7E2C013087316E
:1008F600F6278431822C00308731F6278431200098
:100906006808F1006708F0008D315D2584317108B3
:10091600F9007008F8007908F1007808F0008D31C8
:100926005D2584317D087106031D9B2C7C087006AD
:10093600031D9E2C9F2CAD2C200010153330F30088
:10094600BB30F200E030890BA62CF20BA62CF30B81
:10095600A62CCF2C20006808F1006708F0008D3126
:100966005D25843171082000E8007008E700F0304A
:10097600F2002330F30067087207F4006808733D3D
:10098600F50074088600750887007A088100013032
:100996002100EB070030EC3D080021008F0120000C
:1009A6000E108E100E152100E301E4016D08031DE3
:1009B600DD2CDE2CED2C4430DD009030DE005E08B0
:1009C6002000A50021005D082000A4008F313627F5
:1009D60084313F2D8731B72784312100E200620838
:1009E6008D31BB2584312100DF008731B727843163
:1009F6002100E20062088D31BB2584312100E00030
:100A06005F082000E0000330E035FF3E031D072DA0
:100A1600603521006007E10064082000A500210080
:100A260063082000A4008D318125843121006108EE
:100A36008F316027843101302100E3070030E43D27
:100A460004306402003003196302031C2B2D2C2D85
:100A5600D92C20000E148E143230DB009030DC00CE
:100A6600AD308E313B268431AD302000A4000030FD
:100A7600A5008F3136278431080000302000C100E0
:100A86000030C0000030BF000030BE00823122229C
:100A960085318F310D2785318E31BF268531210075
:100AA60091168B1721006D0803195A2D5B2D852D84
:100AB600200090148731B72785318731B7278531D4
:100AC6002000E40031306406031D6A2D6B2D6F2D66
:100AD6008231CF228531822D32306406031D742D7A
:100AE600752D792D8431D0248531822D33306406DD
:100AF600031D7E2D7F2D822D83315B2385318D3124
:100B0600E92585312000101407302000E300583015
:100B1600E2005930890B8D2DE20B8D2DE30B8D2DC7
:100B26000032200010109010101107302000E30052
:100B36005830E2005930890B9E2DE20B9E2DE30BB7
:100B46009E2D0032552D803140282000B200B00184
:100B5600B101320886008701403FAC00413FAD003D
:100B66002C0884002D08850012002A3A031DBC2D8E
:100B7600BD2DEF2D320886008701013081074131F6
:100B86000318810A2A088600870101088400850166
:100B960002308107003FB000013FB100032E2F084D
:100BA600AC00AD013108A5003008A4000A30A6004B
:100BB6000030A7008E317A26853120002C082407C4
:100BC600B0002D08253DB1003208860087010130AE
:100BD600810741310318810A320886008701403FA8
:100BE600AC00413FAD002C0884002D0885000008AC
:100BF600D03EAF000A302F02031C022E032ED22D48
:100C06003108AB003008AA0008002000AA01A51F81
:100C16000D2E0E2E152EA409A509A40A0319A50A40
:100C2600AA01AA0AA71F182E192E222EA609A7095D
:100C3600A60A0319A70A0130A8002808AA06AB01CC
:100C4600AC01240825040319292E2A2E592EA901A0
:100C5600A90A362E0130A435A50D890B2E2E01309A
:100C6600A8002808A907A51F392E3A2E2D2E0130D7
:100C7600AB35AC0D890B3B2E25082702031D452EEF
:100C860024082602031C482E492E4E2E2408A602AE
:100C96002508A73B2B140130A536A40C890B4F2E33
:100CA6000130A902031D582E592E3A2E2A0803197F
:100CB6005D2E5E2E632EAB09AC09AB0A0319AC0A96
:100CC6002C08A5002B08A400080000302000BC005A
:100CD6000030BB000030BA000030B90033083204DF
:100CE600310430040319782E792EBA2EBD01BD0ABF
:100CF600872E0130B035B10DB20DB30D890B7D2EA7
:100D06000130B8003808BD07B31F8A2E8B2E7C2E03
:100D16000130B935BA0DBB0DBC0D890B8C2E3308CD
:100D26003702031DA02E32083602031DA02E3108FD
:100D36003502031DA02E30083402031CA32EA42E58
:100D4600AD2E3008B4023108B53B3208B63B330845
:100D5600B73B39140130B336B20CB10CB00C890B69
:100D6600AE2E0130BD02031DB92EBA2E8B2E3C08C5
:100D7600B3003B08B2003A08B1003908B0000800D9
:100D86002000AA01A71FC82EC92ED02EA609A70982
:100D9600A60A0319A70AAA01AA0AA51FD32ED42EAA
:100DA600D92EA409A509A40A0319A50A240825040D
:100DB6000319DE2EDF2E082FA901A90AEB2E01301A
:100DC600A435A50D890BE32E0130A8002808A90734
:100DD600A51FEE2EEF2EE22E25082702031DF52E67
:100DE60024082602031CF82EF92EFD2E2408A6023E
:100DF6002508A73B0130A536A40C890BFE2E013031
:100E0600A902031D072F082FEF2E2A0803190C2FFE
:100E16000D2F122FA609A709A60A0319A70A270844
:100E2600A5002608A40008002000260803191C2F88
:100E36001D2F222F2608031D212F222F272F24089E
:100E4600803103208731682F2608093E86008701F6
:100E5600160001040319302F312F4F2F2608093EA3
:100E660086008701403FA700413FA8002608023EB2
:100E760086008701403FA900413FAA002A08803A20
:100E8600AB002808803A2B02031D4B2F27082902A6
:100E960003184E2F4F2F682F200026088600870143
:100EA6002608023E8400850100080107A7002708DE
:100EB60086008701240881002608023E86008701F5
:100EC6000130810741310318810A0800210091127F
:100ED60023001F142000911E712F722F752F2300DF
:100EE6001908992F901407302000A7005830A60043
:100EF6005930890B7C2FA60B7C2FA70B7C2F003239
:100F06002000901007302000A7005830A600593066
:100F1600890B8B2FA60B8B2FA70B8B2F0032230051
:100F26009F1F962F972F6D2F9F136D2F1C08200044
:100F3600A600A7012608A700A60123001B0820007B
:100F46002604A90023001C0820002704AA0029085B
:100F5600AB002A08AC0090102100911620002C0846
:100F6600A5002B08A40008008B13210091128D31D7
:100F7600D2258731003A0319C12FC22FD32F200063
:100F8600101533302000A700BB30A600DF30890BD8
:100F9600CA2FA60BCA2FA70BCA2F00320030F52F77
:100FA600F0302000A6002330A7007C082607860024
:100FB6007D08273D87000108A8007D08A5007C085C
:100FC600A4008D319425873120002508FD002408D2
:100FD600FC0001302100E9070030EA3D8B1791162D
:100FE600200028080800F000700C2000031C0C11DB
:0A0FF60003180C150800FF34033443
:101A6800F030F0002330F1007C08700786007D0814
:101A7800713D8700010808006400800101310130D0
:101A8800FE020030FF3B7F087E04031D412D003419
:101A9800FF3021008F0000320032000020000E14B9
:101AA8008E1400320032000020000F08A400240821
:101AB8000800700A033003197106031D642D652D93
:101AC800682DF001F1016E2D7008013EF000003024
:101AD800713DF10008002000AC1B732D742D752D8D
:101AE800802D2B09AD002C09AE00AD0A0319AE0AF2
:101AF8002D08AB002E08AC00080020000E148E1430
:101B08000E152508A600240822008D0020002608AE
:101B1800033922008C000330890B902D0000080047
:101B28002000240A033003192506031D9C2D9D2D32
:101B3800A02DA401A501A62D2408013EA400003073
:101B4800253DA50008002000A400AB2D00002000C2
:101B5800111EAF2DB02DAA2D240823009A00B52DF3
:101B6800000023009E1CB92DBA2DB42D08002000BA
:101B7800A40061302402031CC22DC32DC62D2408E5
:101B8800A93ED12D41302402031CCB2DCC2DCF2DC5
:101B98002408C93ED12D2408D03E0800200068083A
:101BA800A5006708A4008D3194258D317D0820009B
:101BB8002506031DE12D7C082406031DE42DE52DD3
:101BC800E72D0130E82D00300800F0302000A40097
:101BD8002330A5000030A600A7000030A80004307C
:101BE800A9008E311E268D31FC01FD01FF30200039
:101BF800E7000330E8002100ED0108002000D800CC
:101C08005508DA005408D900112E5930C600560874
:101C1800C7005808803172208E312000590884008E
:101C28005A0885001200031D1A2E1B2E092ED401F6
:101C3800D501080020002508AB002408AA002E2E94
:101C48002A0886002B088700260881000130AA0789
:101C58000030AB3D0130A8020030A93B280A031D23
:101C6800392E290A031D392E3A2E242E0800210068
:101C7800A1005D30A0002108A200A401A501AB01CC
:101C8800AC0120005C08D5005B08D400A030D60069
:101C9800A2308E3102268E3121002408210720002F
:101CA800DF005F088600870181010800F000F1016C
:101CB80023001D1D602E612E632E1908782E9D1C91
:101CC800662E672E6A2E1D121D16782E2000911E74
:101CD8006E2E6F2E782E7008860087012300190853
:101CE8007F398100F101F10A710808002000A8017C
:101CF800A901241C802E812E852E2608A8072708D6
:101D0800A93D0130A635A70D890B862E0130A536D1
:101D1800A40C890B8B2E24082504031D942E952EC4
:101D28007D2E2908A5002808A40008002000B2007C
:101D3800B001B101B02E2F08AD00AE012D08A400EE
:101D48002E08A5002C08A600873117278E310130F0
:101D58002000B0070030B13D30083207AD002D0833
:101D68008600013087000108AF002F08031DBD2E33
:101D7800BE2E9F2E0800873169278E312000250846
:101D88002100B600200024082100B5008E30200074
:101D9800DB009030DC00210036082000DE00210046
:101DA80035082000DD00AD308E313B268E31AD3058
:101DB8002000A4000030A5008F3136278E3108009E
:101DC80020006808F1006708F0008D315D258E312C
:101DD8007C087002F5007D08713BF6007608803AB1
:101DE800F40083307402031DFB2EF1307502031CCE
:101DF800FE2EFF2E042F01308731F6278E31082F53
:101E080000308731F6278E317608F3007508F20026
:101E1800080021001D1023008C018D018E018F0107
:101E280021000C108C100C118C150C128C12200037
:101E38000C1121008D010E108E100E118E110E1234
:101E48008E120E178E1720000E148E140E15FF30EA
:101E580021008F0010109010101120001010901009
:101E680010110800382F00002000111E3C2F3D2FB4
:101E7800372F2508A8002408A700552F2708840015
:101E880028088500000823009A0001302000A707D1
:101E98000030A83D502F000023009E1C542F552FC2
:101EA8004F2F200027088400280885001200031DF2
:101EB8005E2F5F2F422F08002000A6001030890BEC
:101EC800632F00322000260822008F001030890B73
:101ED8006B2F003220000D16003200320000200067
:101EE8008D1502302000A5004530A400A930890BCB
:101EF8007B2FA40B7B2FA50B7B2F003220008D118D
:101F080000320032000020000D12003200320000C2
:101F1800080000302000AF000030AE000030AD00F7
:101F28000030AC00241C992F9A2FA22F2808AC0748
:101F38002908AD3D2A08AE3D2B08AF3D0130A83534
:101F4800A90DAA0DAB0D890BA32F0130A736A60C3E
:101F5800A50CA40C890BAA2F270826042504240401
:101F6800031DB72FB82F962F2F08A7002E08A600FD
:101F78002D08A5002C08A40008002000B900651C45
:101F8800C62FC72FCD2F3908AC0033088E319A26BB
:101F98008F312000B51FD12FD22FD42FB401B50116
:101FA800B701B801E62F20302000A4000030A500BA
:101FB8003908A600873117278F3101302000B7076D
:101FC8000030B83D3808803AB6003508803A360205
:101FD800031DF02F34083702031CF32FF42FD72FDB
:101FE80020006518F82FF92FFF2F3908AC003308A7
:101FF8008E319A268F310800453472346134733437
:102008006534203463346834653463346B34203485
:102018006634613469346C34203461347434203467
:102028006134643464347234653473347334203402
:102038000034453472346134733465342034633485
:102048006834653463346B342034703461347334E9
:102058007334653464342E340A340034573472349B
:10206800693474346534203463346F346D347034B7
:102078006C3465347434653464342E340A34003472
:1020880057347234693474346534203461346234BA
:102098006F3472347434653464340A34003443342D
:1020A8006834653463346B342034613462346F349B
:1020B80072347434653464340A3400345234653408
:1020C800613464342034613462346F34723474346B
:1020D800653464340A340034303478342534303488
:1020E8003434783420343D34203400343034783477
:1020F80025343034323478340A34003425343034DA
:10210800343478343A34203400342534303432349A
:0C21180078340034253464340A34003478
:020000040001F9
:04000E00E239FF3E96
:00000001FF
