:020000040000FA
:0400000080314028E3
:100008007E1480312000A3018B132100911223302C
:100018008E31832680312000A2002208031915287A
:1000280016283B28230884315D2480318F310D2721
:10003800803173082000A1007208A0008D312E25A0
:100048008031243A031D29282A283B28200021082A
:10005800803AFB0080307B02031D342802302002E6
:10006800031C372838283B282100ED01ED0A210020
:1000780091168B177E100900803142288731FD27A1
:100088008031E7008731FE278031E800F0308400B6
:10009800233085000030FE000430FF008D313A2502
:1000A8008031FC01FD01E501E6012100E501E601E1
:1000B800E701E801E901EA01EB01EC01ED0120307B
:1000C8008400013085002030FE000030FF008D31B3
:1000D8003A2580317E10200085313F2D2000D10047
:1000E800460886008701403FC800413FC9004808CC
:1000F8008400490885001200253A031D84288528B4
:1001080058294608860087010130810741310318C4
:10011800810A2100E501E6010310003003180130CF
:100128002000E500FF302100E700FF30E800200054
:10013800CC01BB28E51446088600870101308107F9
:1001480041310318810ABB28CC01CC0ABB284608D8
:1001580086008701403FC800413FC9004808840025
:10016800490885000008303A03199E28A8284C0839
:100178000319BF28C028AB284708AA0046088531BC
:10018800A725803120002B082100E60020002A083E
:100198002100E500E61FD128D228DA2820006514BE
:1001A8002100E509E609E50A0319E60A20004608E0
:1001B80086008701403FD200413FD30052088400A7
:1001C800530885001200643A0319EB28EC28F62836
:1001D80052088400530885001200693A031DF52867
:1001E800F628182947088600870101088400850138
:1001F80002308107003FCD00013FCE005208013E8A
:10020800C8000030533DC9004608860087014808E9
:10021800C03F4908C13F4E08BB004D08BA0051080D
:10022800813171218031702952088400530885007A
:100238001200783A031D212922294E2947088600F1
:10024800870101088400850102308107003FCD0045
:10025800013FCE005208013EC8000030533DC9009E
:100268004608860087014808C03F4908C13F45291C
:100278004E08BB004D08BA0051088331E62380318F
:10028800702952088400530885000008783A031939
:100298003C294E2920004608860087010130810745
:1002A80041310318810A7029460886008701403FBA
:1002B800C800413FC9004808840049088500000873
:1002C800CA00CB014A08A4004B08A5005108A600A3
:1002D8008731162780314E2908002000BD00C00153
:1002E800C00ABB1B78297A2901307B290030C3005A
:1002F800210066082000C200210065082000C10016
:1003080043080319882989299D29FF30C107FF302F
:10031800C23D4308031D9129922997292B30BE001D
:100328000030BF009B292D30BE000030BF003E08C2
:10033800C3001F30C4000030C5002200BF01D92906
:10034800FF30C407FF30C53D4408203E8600013019
:1003580087000A30A4000030A5003B08A7003A082F
:10036800A6008631C226813120002508AC00240869
:10037800AB008D315825813120002B08303E81009B
:10038800C001FF30C107FF30C23D0A30A400003071
:10039800A5003B08A7003A08A60086310726813148
:1003A80020002508BB002408BA0020004508803A30
:1003B800BC0080303C02031DE32901304402031CC9
:1003C800E629E729052A20003A083B04031DED2900
:1003D800EE29A4294008031DF229F329A42942087B
:1003E800803ABC0080303C02031DFC2901304102E8
:1003F800031CFF29002A052A2000E518042A052ADB
:10040800A4292000430803190A2A0B2A162AFF30B8
:10041800C407FF30C53D4408203E860001308700F0
:10042800430881004408203EB3004208B500410853
:10043800B4003D088F31C127813108008B1321009A
:10044800111691160E178E1723009F159F101D1653
:100458009D171E121E159E162000410840043F04D9
:100468003E040319382A392AC92A23009F1D3D2A28
:100478003E2A462A1E1D412A422A462A04302000C6
:10048800CA00672A9F1D492A4A2A522A1E194D2A3C
:100498004E2A522A10302000CA00672A9F19552A6E
:1004A800562A5B2A1E1D592A5A2A5B2A4E2A9F1948
:1004B8005E2A5F2A672A1E19622A632A672A403041
:1004C8002000CA00672A23001E1E6B2A6C2A6F2A86
:1004D80040302000CA0020004A08C200C301C401FD
:1004E800C5014508A7004408A6004308A50042081E
:1004F800A4004108AB004008AA003F08A9003E0834
:10050800A8008F318D27823120002708B3002608E4
:10051800B2002508B1002408B0000130B70031301E
:10052800B6002D30B5000030B40086316726823120
:10053800FF3020003007C600FF30313DC700FF30D4
:10054800323DC800FF30333DC9004608C2004708A5
:10055800C3004808C4004908C5000830C536C40CA3
:10056800C30CC20C890BB22A420823009C00FF303E
:1005780020004605C20000304705C300420823009A
:100588009B002000430823009C000B1721009116B4
:1005980011128B1708002100C00120000D128D14C4
:1005A8008D112100C101C2016D08031DDC2ADD2A5D
:1005B800EC2A6230BD009030BE003E082000A50045
:1005C80021003D082000A4008F31362782315A2BA4
:1005D80042082000A500210041082000A4008D3118
:1005E800F02582318D31BF2582312100BF004008BE
:1005F800031DFF2A002B192B82302000DB009030CE
:10060800DC00210042082000DE0021004108200013
:10061800DD00AD308E3145268231AD302000A4009A
:100628000030A5008F313627823189302000DB0069
:100638009030DC0021003F082000E000E101600864
:10064800DD006108DE00AD308E3145268231AD30E7
:100658002000A4000030A5008F31362782310F30EA
:1006680021004006031D392B3A2B402BC0010A30CC
:100678008D317D2582314A2B20308D317D25823187
:1006880001302000E00060082100C007013021008F
:10069800C1070030C23D0830420200300319410250
:1006A800031C572B582BD82A20008D100800210036
:1006B800CD01CD0A20008D148D110D122100D1011C
:1006C800D2016D08031D692B6A2B792B5330CF009B
:1006D8009030D00050082000A50021004F082000CD
:1006E800A4008F3136278331E52B52082000A5005E
:1006F800210051082000A4008D31F02583318D316F
:10070800BF2583312100CE004E0A03198C2B8D2B77
:10071800CB2B00302000A4009030A5008F31362765
:10072800833170302000DB009030DC00210052085B
:100738002000DE00210051082000DD00AD308E31A0
:1007480045268331AD302000A4000030A5008F314C
:10075800362783317A302000DB009030DC0021001E
:100768004E082000E000E1016008DD006108DE00BD
:10077800AD308E3145268331AD302000A4000030E5
:10078800A5008F31362783312100CD01D82B0130C8
:10079800D1070030D23D083052020030031951020F
:1007A800031CD72BD82B652B20008D1021004D085A
:1007B8000319DF2BE02BE52B1D30CF009030D00044
:1007C8006E2B08002000BD00BE01BE0A210066088D
:1007D8002000C000210065082000BF001F30C200B3
:1007E8000030C3002200BF01242CFF30C207FF30B5
:1007F800C33D3A080F39C1000A3041020318052CDD
:10080800062C0B2C3030BC003C08C1070F2C57308D
:10081800BC003C08C1074208203E86000130870022
:1008280041088100BE01FF30BF07FF30C03D3A0ECE
:100838000F39BA003B0EF039BA043B0E0F39BB0032
:1008480020004308803ABC0080303C02031D2E2C57
:1008580002304202031C312C322C502C20003A0862
:100868003B04031D382C392CF92B3E08031D3D2C65
:100878003E2CF92B4008803ABC0080303C02031D16
:10088800472C01303F02031C4A2C4B2C502C2000D3
:10089800E5184F2C502CF92B20004208203EB300BD
:1008A8004008B5003F08B4003D088F31C1278331A7
:1008B8000800FA0020006808F1006708F0008D3190
:1008C800462584317C087002F6007D08713BF700EC
:1008D8007708803AF20083307202031D752CF130DC
:1008E8007602031C782C792C7E2C01308731F52771
:1008F8008431822C00308731F52784312000680844
:10090800F1006708F0008D31462584317108F9003F
:100918007008F8007908F1007808F0008D31462554
:1009280084317D087106031D9B2C7C087006031D0D
:100938009E2C9F2CAD2C200010153330F300BB30BB
:10094800F200E030890BA62CF20BA62CF30BA62C98
:10095800CF2C20006808F1006708F0008D3146258B
:10096800843171082000E8007008E700F030F200D8
:100978002330F30067087207F4006808733DF50038
:1009880074088600750887007A0881000130210004
:10099800EB070030EC3D080021008F0120008D148A
:1009A8000D158D112100E301E4016D08031DDD2CF7
:1009B800DE2CED2C4430DD009030DE005E08200097
:1009C800A50021005D082000A4008F31362784315E
:1009D8003E2D8731B62784312100E20062088D312F
:1009E800912584312100DF008731B6278431210029
:1009F800E20062088D31912584312100E0005F0812
:100A08002000E0000330E035FF3E031D072D603570
:100A180021006007E10064082000A50021006308A8
:100A28002000A4008D31F0258431210061088F3128
:100A38006027843101302100E3070030E43D0830AD
:100A48006402003003196302031C2B2D2C2DD92CB2
:100A580020008D103230DB009030DC00AD308E315C
:100A680045268431AD302000A4000030A5008F3128
:100A780036278431080000302000C1000030C00053
:100A88000030BF000030BE008231222285318E3115
:100A9800642685318E31E8268531210091168B1721
:100AA80021006D080319592D5A2D842D200090140A
:100AB8008731B62785318731B62785312000E40094
:100AC80031306406031D692D6A2D6E2D8231CF22C7
:100AD8008531812D32306406031D732D742D782DD8
:100AE8008431D0248531812D33306406031D7D2D5A
:100AF8007E2D812D83315B2385318D31D72585313D
:100B08002000101407302000E3005830E20059306C
:100B1800890B8C2DE20B8C2DE30B8C2D00322000E1
:100B280010109010101107302000E3005830E20038
:100B38005930890B9D2DE20B9D2DE30B9D2D003225
:100B4800542D803140282000B200B001B101320894
:100B580086008701403FAC00413FAD002C0884006F
:100B68002D08850012002A3A031DBB2DBC2DEE2D41
:100B78003208860087010130810741310318810A54
:100B88002A08860087010108840085010230810750
:100B9800003FB000013FB100022E2F08AC00AD01AC
:100BA8003108A5003008A4000A30A6000030A700CC
:100BB8008E31A326853120002C082407B0002D088B
:100BC800253DB10032088600870101308107413197
:100BD8000318810A320886008701403FAC00413F74
:100BE800AD002C0884002D0885000008D03EAF0019
:100BF8000A302F02031C012E022ED12D3108AB0022
:100C08003008AA0008002000AA01A51F0C2E0D2EEE
:100C1800142EA409A509A40A0319A50AAA01AA0A57
:100C2800A71F172E182E212EA609A709A60A0319F1
:100C3800A70A0130A8002808AA06AB01AC012408BD
:100C480025040319282E292E582EA901A90A352E64
:100C58000130A435A50D890B2D2E0130A8002808D8
:100C6800A907A51F382E392E2C2E0130AB35AC0D17
:100C7800890B3A2E25082702031D442E2408260234
:100C8800031C472E482E4D2E2408A6022508A73BF4
:100C98002B140130A536A40C890B4E2E0130A90265
:100CA800031D572E582E392E2A0803195C2E5D2E47
:100CB800622EAB09AC09AB0A0319AC0A2C08A500D3
:100CC8002B08A400080000302000BC000030BB0046
:100CD8000030BA000030B90033083204310430045F
:100CE8000319772E782EB92EBD01BD0A862E013044
:100CF800B035B10DB20DB30D890B7C2E0130B800A3
:100D08003808BD07B31F892E8A2E7B2E0130B935CE
:100D1800BA0DBB0DBC0D890B8B2E33083702031D92
:100D28009F2E32083602031D9F2E31083502031DFF
:100D38009F2E30083402031CA22EA32EAC2E30089E
:100D4800B4023108B53B3208B63B3308B73B391417
:100D58000130B336B20CB10CB00C890BAD2E01309A
:100D6800BD02031DB82EB92E8A2E3C08B3003B08DD
:100D7800B2003A08B1003908B00008002000AA0102
:100D8800A71FC72EC82ECF2EA609A709A60A031982
:100D9800A70AAA01AA0AA51FD22ED32ED82EA409C3
:100DA800A509A40A0319A50A240825040319DD2E98
:100DB800DE2E072FA901A90AEA2E0130A435A50DB8
:100DC800890BE22E0130A8002808A907A51FED2EDF
:100DD800EE2EE12E25082702031DF42E24082602F4
:100DE800031CF72EF82EFC2E2408A6022508A73B84
:100DF8000130A536A40C890BFD2E0130A902031D74
:100E0800062F072FEE2E2A0803190B2F0C2F112F50
:100E1800A609A709A60A0319A70A2708A5002608EC
:100E2800A40008002000260803191B2F1C2F212FBF
:100E38002608031D202F212F262F24088731FF275E
:100E48008731672F2608093E8600870116000104AE
:100E580003192F2F302F4E2F2608093E86008701B1
:100E6800403FA700413FA8002608023E86008701B0
:100E7800403FA900413FAA002A08803AAB00280851
:100E8800803A2B02031D4A2F2708290203184D2FE9
:100E98004E2F672F20002608860087012608023E6D
:100EA8008400850100080107A7002708860087013C
:100EB800240881002608023E860087010130810748
:100EC80041310318810A08002100911223001F14E0
:100ED8002000911E702F712F742F23001908982F4E
:100EE800901407302000A7005830A6005930890B0D
:100EF8007B2FA60B7B2FA70B7B2F00322000901097
:100F080007302000A7005830A6005930890B8A2FD7
:100F1800A60B8A2FA70B8A2F003223009F1F952F1D
:100F2800962F6C2F9F136C2F1C082000A600A7017A
:100F38002608A700A60123001B0820002604A900F4
:100F480023001C0820002704AA002908AB002A084F
:100F5800AC0090102100911620002C08A5002B0849
:100F6800A40008008B13210091128D31A825873128
:100F7800003A0319C02FC12FD22F2000101533308B
:100F88002000A700BB30A600DF30890BC92FA60BB5
:100F9800C92FA70BC92F00320030F42FF0302000E2
:100FA800A6002330A7007C08260786007D08273D79
:100FB80087000108A8007D08A5007C08A4008D31E1
:100FC8006A25873120002508FD002408FC0001302F
:100FD8002100E9070030EA3D8B1791162000280808
:100FE8000800F000700C2000031C0C1103180C15ED
:080FF8000800FF340334080077
:101A5C00F030F0002330F1007C08700786007D0820
:101A6C00713D8700010808006400800101310130DC
:101A7C00FE020030FF3B7F087E04031D3B2D00342B
:101A8C00700A033003197106031D4D2D4E2D512D77
:101A9C00F001F101572D7008013EF0000030713D4E
:101AAC00F10008002000AC1B5C2D5D2D5E2D692D16
:101ABC002B09AD002C09AE00AD0A0319AE0A2D0896
:101ACC00AB002E08AC0008002000240A03300319D8
:101ADC002506031D722D732D762DA401A5017C2DD9
:101AEC002408013EA4000030253DA500080020007C
:101AFC00A400812D00002000111E852D862D802D27
:101B0C00240823009A008B2D000023009E1C8F2D8F
:101B1C00902D8A2D08002000A40061302402031CA3
:101B2C00982D992D9C2D2408A93EA72D41302402D7
:101B3C00031CA12DA22DA52D2408C93EA72D2408D8
:101B4C00D03E080020006808A5006708A4008D316D
:101B5C006A258D317D0820002506031DB72D7C08D4
:101B6C002406031DBA2DBB2DBD2D0130BE2D00301A
:101B7C000800FF3021008F000032003200002000EE
:101B8C000D1100320032000020000F08A4000032BA
:101B9C000032000020000D1521008F0120002408C8
:101BAC000800F0302000A4002330A5000030A6006F
:101BBC00A7000030A8000430A9008E3128268D31F2
:101BCC00FC01FD01FF302000E7000330E80021009C
:101BDC00ED01080021008F0120000D152508A6003D
:101BEC00240822008F002000260822008E000330DB
:101BFC00890BFE2D000020000D1400320032000075
:101C0C0020000D1000320032000008002000D80027
:101C1C005508DA005408D9001B2E5930C600560856
:101C2C00C7005808803172208E312000590884007A
:101C3C005A0885001200031D242E252E132ED401C4
:101C4C00D501080020002508AB002408AA00382E76
:101C5C002A0886002B088700260881000130AA0775
:101C6C000030AB3D0130A8020030A93B280A031D0F
:101C7C00432E290A031D432E442E2E2E080021002C
:101C8C00A1005D30A0002108A200A401A501AB01B8
:101C9C00AC0120005C08D5005B08D400A030D60055
:101CAC00A2308E310C268E31210024082107200011
:101CBC00DF005F08860087018101080021001D10EC
:101CCC0023008C018D018F01210010109010101138
:101CDC00200010109010101121000C118C152000F8
:101CEC000C1121008F01C0308E008D0120000D10D1
:101CFC008D100D158D110D120800F000F10123004F
:101D0C001D1D892E8A2E8C2E1908A12E9D1C8F2EFE
:101D1C00902E932E1D121D16A12E2000911E972E73
:101D2C00982EA12E700886008701230019087F3990
:101D3C008100F101F10A710808002000A801A90135
:101D4C00241CA92EAA2EAE2E2608A8072708A93DCA
:101D5C000130A635A70D890BAF2E0130A536A40C8A
:101D6C00890BB42E24082504031DBD2EBE2EA62ED1
:101D7C002908A5002808A40008002000B200B00122
:101D8C00B101D92E2F08AD00AE012D08A4002E08EC
:101D9C00A5002C08A600873116278E3101302000B3
:101DAC00B0070030B13D30083207AD002D08860079
:101DBC00013087000108AF002F08031DE62EE72E27
:101DCC00C82E0800873168278E3120002508210095
:101DDC00B600200024082100B5008E302000DB0066
:101DEC009030DC00210036082000DE002100350890
:101DFC002000DD00AD308E3145268E31AD30200017
:101E0C00A4000030A5008F3136278E310800200049
:101E1C006808F1006708F0008D3146258F317C0889
:101E2C007002F5007D08713BF6007608803AF400EC
:101E3C0083307402031D242FF1307502031C272FED
:101E4C00282F2D2F01308731F5278F31312F00307E
:101E5C008731F5278F317608F3007508F2000800FA
:101E6C00382F00002000111E3C2F3D2F372F250846
:101E7C00A8002408A700552F2708840028088500EF
:101E8C00000823009A0001302000A7070030A83D6D
:101E9C00502F000023009E1C542F552F4F2F200035
:101EAC0027088400280885001200031D5E2F5F2F71
:101EBC00422F08002000A6001030890B632F00323F
:101ECC002000260822008F001030890B6B2F003267
:101EDC0020000D1600320032000020008D1502305B
:101EEC002000A5004530A400A930890B7B2FA40B42
:101EFC007B2FA50B7B2F003220008D11003200327E
:101F0C00000020000D1200320032000008000030EA
:101F1C002000AF000030AE000030AD000030AC004F
:101F2C00241C992F9A2FA22F2808AC072908AD3D05
:101F3C002A08AE3D2B08AF3D0130A835A90DAA0DDE
:101F4C00AB0D890BA32F0130A736A60CA50CA40C46
:101F5C00890BAA2F2708260425042404031DB72F58
:101F6C00B82F962F2F08A7002E08A6002D08A50025
:101F7C002C08A40008002000B900651CC62FC72F30
:101F8C00CD2F3908AC0033088E31C3268F31200099
:101F9C00B51FD12FD22FD42FB401B501B701B80181
:101FAC00E62F20302000A4000030A5003908A60040
:101FBC00873116278F3101302000B7070030B83D2C
:101FCC003808803AB6003508803A3602031DF02FE7
:101FDC0034083702031CF32FF42FD72F2000651879
:101FEC00F82FF92FFF2F3908AC0033088E31C32698
:101FFC008F310800453472346134733465342034C5
:10200C0063346834653463346B342034663461343F
:10201C0069346C3420346134743420346134643465
:10202C00643472346534733473342034003445347E
:10203C0072346134733465342034633468346534F9
:10204C0063346B34203470346134733473346534DA
:10205C0064342E340A340034573472346934743492
:10206C006534203463346F346D3470346C346534BF
:10207C007434653464342E340A3400345734723476
:10208C006934743465342034613462346F3472349E
:10209C007434653464340A3400344334683465343D
:1020AC0063346B342034613462346F34723474347E
:1020BC00653464340A340034523465346134643425
:1020CC002034613462346F34723474346534643463
:1020DC000A340034303478342534303434347834A1
:1020EC0020343D34203400343034783425343034CA
:1020FC00323478340A34003425343034343478347F
:10210C003A342034003425343034323478340034CA
:08211C00253464340A34003458
:020000040001F9
:04000E00E239FF3E96
:00000001FF
